:020000040800F2
:10000000C0330020F5F4000875F0000877F0000810
:1000100000000000000000000000000000000000E0
:100020000000000000000000000000002380000825
:1000300000000000000000009381000879F0000833
:100040003384000827B90008DBC600083FCB00084E
:100050008BCF0008B1F00008A1F0000881F0000883
:100060007BDA0008A7EC0008C3ED000873F0000875
:10007000D7F40008E3F4000811F5000813F50008B0
:1000800015F5000817F5000819F500081BF500081C
:100090001DF500081FF5000821F5000823F50008EC
:1000A00025F5000827F5000829F50008BBF0000831
:1000B000C7F00008D5F000082BF50008000000008C
:1000C0000000000000000000000000000000000030
:1000D0000000000000000000000000000000000020
:1000E0000000000000000000000000000000000010
:1000F0000000000000000000000000000000000000
:1001000000000000000000000000038000038000E9
:10011000038000038000038000038000038000034D
:1001200080000380000100000100000000000000CA
:1001300000038000038000000000000000000000B9
:1001400000000000000000000000000000000000AF
:1001500000000000000E70000E70000E7000042001
:100160000004200004200004200000000000000023
:10017000000000000000000000000000000000007F
:10018000000000000000000000000000000000006F
:100190000000000000000000000006600006600093
:1001A0000660000660000660003FF8003FF80006A9
:1001B00060000CC0003FF8003FF8000CC0000CC00D
:1001C000000CC0000CC0000CC000000000000000CB
:1001D000000000000000000000000000000000011E
:1001E000800001800007B0000FF000187000187048
:1001F000001C00000F800007E00000F00018300035
:100200001C30001C70001FE0001BC00001800001BA
:10021000800001800001800000000000000000005C
:10022000000000000000000000000780000FC00078
:100230001CE0001860001860001CE0000FF80007C8
:10024000E0001FF000073800061800061800073805
:100250000003F00001E000000000000000000000CA
:10026000000000000000000000000000000000008E
:10027000000000000000000003F00007F0000C6028
:10028000000C00000C00000600000700000F9C009E
:100290001DFC0018F0001870000FFC0007DC0000C7
:1002A000000000000000000000000000000000004E
:1002B00000000000000000000000000000038000BB
:1002C0000380000380000100000100000100000124
:1002D000000000000000000000000000000000001E
:1002E000000000000000000000000000000000000E
:1002F00000000000000000000000000000000000FE
:10030000000000180000380000700000F00000E05D
:100310000000E00001C00001C00001C00001C000F9
:1003200001C00001C00000E00000E000007000001B
:1003300070000038000018000000000000000000FD
:10034000000000000000000000001800001C000079
:100350000E00000E000007000007000003800003ED
:1003600080000380000380000380000380000700FA
:10037000000700000F00000E00001C000018000025
:10038000000000000000000000000000000000006D
:1003900000000180000180000180001DB8001FF8EE
:1003A0000007E00003C00003C00006600006600014
:1003B000000000000000000000000000000000003D
:1003C000000000000000000000000000000000002D
:1003D000000000000000000000000000000000001D
:1003E0000180000180000180000180000180003F49
:1003F000FC003FFC000180000180000180000180C2
:10040000000180000000000000000000000000006B
:1004100000000000000000000000000000000000DC
:1004200000000000000000000000000000000000CC
:1004300000000000000000000000000000000000BC
:1004400000000000000000E00000C00001C000014A
:100450008000018000030000030000000000000095
:10046000000000000000000000000000000000008C
:100470000000000000000000000000000000001F5D
:10048000F8001FF80000000000000000000000005D
:10049000000000000000000000000000000000005C
:1004A000000000000000000000000000000000004C
:1004B000000000000000000000000000000000003C
:1004C000000000000000000000000000000000002C
:1004D00000000000000003C00003C00003C00000D3
:1004E000000000000000000000000000000000000C
:1004F0000000000000180000180000380000300064
:1005000000700000600000600000C00000C000013A
:1005100080000180000300000300000600000600C8
:10052000000E00000C00001C000018000018000065
:1005300000000000000000000000000000000000BB
:10054000000003C00007E0000C30000C3000181859
:1005500000181800181800181800181800181800AB
:100560001818000C30000C300007E00003C0000039
:10057000000000000000000000000000000000007B
:100580000000000000000000000000800007800064
:100590001F80001D8000018000018000018000019B
:1005A0008000018000018000018000018000018046
:1005B000001FF8001FF8000000000000000000000D
:1005C000000000000000000000000000000000002B
:1005D000000007C0001FF00038300030180030184D
:1005E0000000180000300000600001C0000380001F
:1005F0000600000C00001800003FF8003FF8000063
:1006000000000000000000000000000000000000EA
:100610000000000000000000000003C0000FE00028
:100620000C700000300000300000600003C00003C8
:10063000E0000070000018000018000018001838D2
:10064000001FF0000FC000000000000000000000CC
:10065000000000000000000000000000000000009A
:10066000000000E00001E00001E00003600006601F
:10067000000660000C60000C600018600030600034
:100680003FF8003FF80000600003F80003F80000A6
:10069000000000000000000000000000000000005A
:1006A000000000000000000000001FF0001FF0002C
:1006B0001800001800001800001BC0001FF0001CEC
:1006C000300000180000180000180000180030303A
:1006D000003FF0000FC0000000000000000000001C
:1006E000000000000000000000000000000000000A
:1006F000000000F80003F8000700000E00000C00E6
:10070000001800001BC0001FF0001C30001818006B
:100710001818001818000C38000FF00003E0000053
:1007200000000000000000000000000000000000C9
:10073000000000000000000000001FF8001FF8008B
:100740001818001838000030000030000070000059
:10075000600000600000E00000C00000C00001C0B8
:100760000001800001800000000000000000000087
:100770000000000000000000000000000000000079
:10078000000007E0000FF0001C38001818001818CF
:10079000000C300007E00007E0000C3000181800E3
:1007A0001818001818001C38000FF00007E00000AF
:1007B0000000000000000000000000000000000039
:1007C0000000000000000000000007C0000FF00063
:1007D0001C30001818001818001818000C38000FEA
:1007E000F80003D80000180000300000700000E09E
:1007F000001FC0001F0000000000000000000000FB
:1008000000000000000000000000000000000000E8
:10081000000000000000000000000000000003C015
:100820000003C00003C00000000000000000000042
:1008300000000000000003C00003C00003C000006F
:1008400000000000000000000000000000000000A8
:100850000000000000000000000000000000000098
:1008600000000000000000F00000F00000F00000B8
:10087000000000000000000000000000E00001C0D7
:100880000001800001800003000002000000000061
:100890000000000000000000000000000000000058
:1008A0000000000000000000001C00003C0000F000
:1008B0000003C0000F00003C0000F000003C0000FE
:1008C0000F000003C00000F000003C00001C00000E
:1008D0000000000000000000000000000000000018
:1008E0000000000000000000000000000000000008
:1008F0000000000000000000007FFC007FFC000002
:1009000000000000007FFC007FFC000000000000F1
:1009100000000000000000000000000000000000D7
:1009200000000000000000000000000000000000C7
:1009300000000000000000007000007800001E00B1
:100940000007800001E000007800001E0000780031
:1009500001E0000780001E00007800007000000029
:100960000000000000000000000000000000000087
:100970000000000000000000000000000007C000B0
:100980000FE00018700018300018300000700000F0
:10099000E00003C00003800003000000000000002E
:1009A0000007000007000000000000000000000039
:1009B0000000000000000000000000000000000037
:1009C000000003E00007F0000E38000C1800187853
:1009D0000018F80019D80019980019980019980003
:1009E00018F8001878001800000C00000E18000716
:1009F000F80003E00000000000000000000000001C
:100A0000000000000000000000000000001F800047
:100A10001FC00001C0000360000360000630000634
:100A200030000C30000FF8001FF800180C00300CDC
:100A300000FC7F00FC7F00000000000000000000C0
:100A400000000000000000000000000000000000A6
:100A500000000000007FE0007FF000183800181848
:100A6000001818001838001FF0001FF800181C00AC
:100A7000180C00180C00180C007FF8007FF0000024
:100A80000000000000000000000000000000000066
:100A90000000000000000000000000000003EC0067
:100AA0000FFC001C1C00180C00300C003000003043
:100AB0000000300000300000300000180C001C1C4A
:100AC000000FF80003F0000000000000000000002C
:100AD0000000000000000000000000000000000016
:100AE00000000000007FC0007FF0001838001818D8
:100AF00000180C00180C00180C00180C00180C0042
:100B0000180C001818001838007FF0007FE0000073
:100B100000000000000000000000000000000000D5
:100B2000000000000000000000000000007FF8004E
:100B30007FF8001818001818001998001980001F75
:100B400080001F80001980001998001818001818DC
:100B5000007FF8007FF800000000000000000000A7
:100B60000000000000000000000000000000000085
:100B700000000000003FFC003FFC000C0C000C0CCF
:100B8000000CCC000CC0000FC0000FC0000CC00057
:100B90000CC0000C00000C00003FC0003FC0000073
:100BA0000000000000000000000000000000000045
:100BB0000000000000000000000000000003EC0046
:100BC0000FFC001C1C00180C00300C003000003022
:100BD000000030FE0030FE00300C00380C001C1C01
:100BE000000FFC0003F00000000000000000000007
:100BF00000000000000000000000000000000000F5
:100C000000000000007E7E007E7E0018180018188C
:100C1000001818001818001FF8001FF80018180016
:100C20001818001818001818007E7E007E7E00003C
:100C300000000000000000000000000000000000B4
:100C4000000000000000000000000000001FF8008D
:100C50001FF8000180000180000180000180000178
:100C6000800001800001800001800001800001807F
:100C7000001FF8001FF80000000000000000000046
:100C80000000000000000000000000000000000064
:100C9000000000000007FE0007FE000030000030EA
:100CA00000003000003000003000303000303000F4
:100CB0003030003030003060003FE0000F80000036
:100CC0000000000000000000000000000000000024
:100CD000000000000000000000000000007F3E0057
:100CE0007F3E0018300018600018C0001980001BFB
:100CF00080001FC0001CE000187000183000183879
:100D0000007F1F007F1F00000000000000000000A7
:100D100000000000000000000000000000000000D3
:100D200000000000007F80007F80000C00000C00AD
:100D3000000C00000C00000C00000C00000C0C006B
:100D40000C0C000C0C000C0C007FFC007FFC000065
:100D50000000000000000000000000000000000093
:100D600000000000000000000000000000F00F0084
:100D7000F81F00381C003C3C003C3C00366C003640
:100D80006C0033CC0033CC00318C00300C00300CC4
:100D900000FE7F00FE7F0000000000000000000059
:100DA0000000000000000000000000000000000043
:100DB000000000000078FE0078FE001C18001E18DD
:100DC000001F18001B18001B980019D80018D80025
:100DD00018F8001878001838007F18007F180000F5
:100DE0000000000000000000000000000000000003
:100DF0000000000000000000000000000003C00030
:100E00000FF0001C3800181800381C00300C00309F
:100E10000C00300C00300C00381C001818001C3876
:100E2000000FF00003C00000000000000000000000
:100E300000000000000000000000000000000000B2
:100E400000000000003FF0003FF8000C1C000C0CFC
:100E5000000C0C000C0C000C18000FF8000FE00048
:100E60000C00000C00000C00003FC0003FC0000060
:100E70000000000000000000000000000000000072
:100E80000000000000000000000000000003C0009F
:100E90000FF0001C3800181800381C00300C00300F
:100EA0000C00300C00300C00381C001818001C38E6
:100EB000000FF00007C00007CC000FFC000C38004A
:100EC0000000000000000000000000000000000022
:100ED00000000000007FE0007FF0001838001818C4
:100EE000001818001838001FF0001FC00018E0009C
:100EF0001870001830001838007F1E007F0E0000A8
:100F000000000000000000000000000000000000E1
:100F10000000000000000000000000000007D800F2
:100F20000FF8001C38001818001818001E00000FD9
:100F3000C00003F0000078001818001818001C38D2
:100F4000001FF0001BE00000000000000000000097
:100F50000000000000000000000000000000000091
:100F600000000000003FFC003FFC00318C00318C91
:100F700000318C00318C0001800001800001800074
:100F80000180000180000180000FF0000FF00000E0
:100F90000000000000000000000000000000000051
:100FA000000000000000000000000000007E7E0045
:100FB0007E7E00181800181800181800181800185D
:100FC00018001818001818001818001818000C300D
:100FD000000FF00003C0000000000000000000004F
:100FE0000000000000000000000000000000000001
:100FF00000000000007F7F007F7F00180C000C18AD
:10100000000C18000C1800063000063000036000C9
:1010100003600003600001C00001C0000080000008
:1010200000000000000000000000000000000000C0
:1010300000000000000000000000000000FE3F80F3
:10104000FE3F8030060030060030860019CC0019C3
:10105000CC001B6C001B6C001E7C000E38000E3890
:10106000000C18000C180000000000000000000038
:101070000000000000000000000000000000000070
:1010800000000000007E7E007E7E001818000C30FC
:101090000006600003C00001800001800003C00062
:1010A0000660000C30001818007E7E007E7E000076
:1010B0000000000000000000000000000000000030
:1010C000000000000000000000000000007C7E0026
:1010D0007C7E001818000C300006600006600003DB
:1010E000C0000180000180000180000180000180BB
:1010F000000FF0000FF000000000000000000000F2
:1011000000000000000000000000000000000000DF
:1011100000000000001FF8001FF800181800183029
:101120000018600018C000018000030000061800CD
:101130000C18001818003018003FF8003FF80000A5
:10114000000000000000000000000000000000009F
:101150000000000000000000000001F00001F000AD
:1011600001800001800001800001800001800001F9
:10117000800001800001800001800001800001806A
:101180000001800001800001800001F00001F000FA
:10119000000000000000000000000000180000181F
:1011A00000001C00000C00000E00000600000600FD
:1011B0000003000003000001800001800000C00067
:1011C00000C00000600000600000700000300000FF
:1011D00038000018000018000000000000000000A7
:1011E000000000000000000000000F80000F8000E1
:1011F0000180000180000180000180000180000169
:1012000080000180000180000180000180000180D9
:10121000000180000180000180000F80000F80002D
:1012200000000000000000000000000000000000BE
:10123000800001C00003E0000770000630000C18B9
:1012400000180C0010040000000000000000000066
:10125000000000000000000000000000000000008E
:10126000000000000000000000000000000000007E
:10127000000000000000000000000000000000006E
:10128000000000000000000000000000000000005E
:10129000000000000000000000000000000000004E
:1012A000000000000000000000000000000000003E
:1012B000000000000000FFFF00FFFF00000000032F
:1012C000000003800000E00000600000000000005B
:1012D000000000000000000000000000000000000E
:1012E00000000000000000000000000000000000FE
:1012F00000000000000000000000000000000000EE
:1013000000000000000000000000000000000000DD
:101310000000000000000FC0001FE00000300000CF
:10132000300007F0001FF00038300030300030701F
:10133000001FFC000FBC00000000000000000000C7
:10134000000000000000000000000000000000009D
:1013500000007800007800001800001800001BE072
:10136000001FF8001C1800180C00180C00180C00C6
:10137000180C00180C001C18007FF8007BE000001F
:10138000000000000000000000000000000000005D
:10139000000000000000000000000000000000004D
:1013A00000000000000003EC000FFC001C1C0038D3
:1013B0000C00300C00300000300000380C001C1C09
:1013C000000FF80003F00000000000000000000023
:1013D000000000000000000000000000000000000D
:1013E000000000780000780000180000180007D8FE
:1013F000001FF800183800301800301800301800AE
:101400003018003018001838001FFE0007DE0000FA
:1014100000000000000000000000000000000000CC
:1014200000000000000000000000000000000000BC
:1014300000000000000007E0001FF800181800304E
:101440000C003FFC003FFC00300000300000180C96
:10145000001FFC0007F0000000000000000000007A
:10146000000000000000000000000000000000007C
:10147000000001FC0003FC000600000600003FF82D
:10148000003FF8000600000600000600000600000D
:101490000600000600000600003FF0003FF00000DC
:1014A000000000000000000000000000000000003C
:1014B000000000000000000000000000000000002C
:1014C00000000000000007DE001FFE00183800309A
:1014D0001800301800301800301800301800183884
:1014E000001FF80007D8000018000018000038009E
:1014F0000FF0000FC000000000000000000000001E
:1015000000007800007800001800001800001BE0C0
:10151000001FF0001C3800181800181800181800D8
:101520001818001818001818007E7E007E7E000033
:1015300000000000000000000000000000000000AB
:101540000000000000000000000001800001800099
:101550000000000000001F80001F800001800001CB
:101560008000018000018000018000018000018076
:10157000003FFC003FFC00000000000000000000F5
:10158000000000000000000000000000000000005B
:10159000000000C00000C0000000000000001FF0BC
:1015A000001FF0000030000030000030000030006C
:1015B000003000003000003000003000003000003B
:1015C00030000030000070001FE0001F80000000AD
:1015D000000000000000000000003C00003C000093
:1015E0000C00000C00000CF8000CF8000CC0000D02
:1015F00080000F80000F00000F80000DC0000CE085
:10160000003C7C003C7C000000000000000000006A
:1016100000000000000000000000000000000000CA
:1016200000001F80001F80000180000180000180F9
:101630000001800001800001800001800001800025
:101640000180000180000180003FFC003FFC0000A1
:10165000000000000000000000000000000000008A
:10166000000000000000000000000000000000007A
:10167000000000000000F77800FFFC0039CC0031CA
:101680008C00318C00318C00318C00318C00318C1D
:1016900000FDEF00FDEF0000000000000000000072
:1016A000000000000000000000000000000000003A
:1016B00000000000000000000000000000007BE0CF
:1016C000007FF0001C3800181800181800181800C7
:1016D0001818001818001818007E7E007E7E000082
:1016E00000000000000000000000000000000000FA
:1016F00000000000000000000000000000000000EA
:1017000000000000000003C0000FF0001C3800388B
:101710001C00300C00300C00300C00381C001C3851
:10172000000FF00003C000000000000000000000F7
:1017300000000000000000000000000000000000A9
:1017400000000000000000000000000000007BE03E
:10175000007FF8001C1800180C00180C00180C0072
:10176000180C00180C001C18001FF8001BE00018D3
:1017700000001800001800007F00007F000000003B
:101780000000000000000000000000000000000059
:1017900000000000000007DE001FFE0018380030C7
:1017A00018003018003018003018003018001838B1
:1017B000001FF80007D800001800001800001800EB
:1017C00000FE0000FE00000000000000000000001D
:1017D00000000000000000000000000000003E7853
:1017E000003EFC0007CC00070000060000060000D9
:1017F0000600000600000600003FF0003FF0000079
:1018000000000000000000000000000000000000D8
:1018100000000000000000000000000000000000C8
:1018200000000000000007F8000FF800181800186A
:1018300018001F80000FF00000F80018180018387A
:10184000001FF0001FE0000000000000000000008A
:101850000000000000000000000000000000000088
:1018600000000C00000C00000C00000C00003FF019
:10187000003FF0000C00000C00000C00000C000009
:101880000C00000C00000C1C0007FC0003F0000022
:101890000000000000000000000000000000000048
:1018A0000000000000000000000000000000000038
:1018B0000000000000007878007878001818001800
:1018C00018001818001818001818001818001838F0
:1018D000000FFE0007DE0000000000000000000016
:1018E00000000000000000000000000000000000F8
:1018F00000000000000000000000000000007C3E2E
:10190000007C3E001818001818000C30000C300045
:1019100006600006600007E00003C00003C000008E
:1019200000000000000000000000000000000000B7
:1019300000000000000000000000000000000000A7
:10194000000000000000783C00783C0031180033B3
:1019500098003398001AB0001EF0001EF0001C60C2
:10196000000C60000C60000000000000000000009F
:101970000000000000000000000000000000000067
:1019800000000000000000000000000000003E7C9D
:10199000003E7C000C300006600003C000018000A7
:1019A00003C0000660000C30003E7C003E7C00005E
:1019B0000000000000000000000000000000000027
:1019C0000000000000000000000000000000000017
:1019D0000000000000007E1F007E1F00180C000C9D
:1019E00018000C180006300006300003600003E009
:1019F0000001C00000C00001800001800003000061
:101A00003FC0003FC00000000000000000000000D8
:101A100000000000000000000000000000001FF8AF
:101A2000001FF80018300018600000C0000180009E
:101A30000300000618000C18001FF8001FF8000033
:101A40000000000000000000000000000000000096
:101A50000000000000000000000000E00001E000C5
:101A600001800001800001800001800001800001F0
:101A700080000380000700000380000180000180D7
:101A80000001800001800001800001E00000E00012
:101A90000000000000000000000000000000000046
:101AA00000000180000180000180000180000180B1
:101AB00000018000018000018000018000018000A1
:101AC0000180000180000180000180000180000190
:101AD0008000018000018000000000000000000084
:101AE0000000000000000000000007000007800068
:101AF0000180000180000180000180000180000160
:101B0000800001C00000E00001C0000180000180F1
:101B100000018000018000018000078000070000B4
:101B200000000000000000000000000000000000B5
:101B300000000000000000000000000000000000A5
:101B4000000000000E00001F18003BB80031F0003C
:101B500000E00000000000000000000000000000A5
:101B60000000000000000000000000000000000075
:101B70000000000000000000000000000000000065
:101B80000000000000000000000000000000000055
:101B9000000000000000000000000000000007003E
:101BA0000700070007000700070007000200020007
:101BB0000000000007000700000000000000000017
:101BC00000000000000000001CE01CE01CE00840D9
:101BD0000840084000000000000000000000000075
:101BE0000000000000000000000000000CC00CC05D
:101BF0000CC00CC00CC03FF03FF00CC00CC03FF05C
:101C00003FF00CC00CC00CC00CC00CC000000000A9
:101C1000000000000300030007E00FE01860180058
:101C20001F000FC000E0186018601FC01F80030075
:101C300003000300000000000000000000001C0082
:101C40002200220022001C6001E00F803C0031C015
:101C500002200220022001C000000000000000005D
:101C60000000000000000000000003E00FE00C0096
:101C70000C0006000F301FF019E018C01FF007B06D
:101C80000000000000000000000000000000000054
:101C900003800380038001000100010000000000B8
:101CA0000000000000000000000000000000000034
:101CB00000000000000000C000C001800180018021
:101CC0000300030003000300030003000180018000
:101CD000018000C000C000000000000000000C00F7
:101CE0000C000600060006000300030003000300CA
:101CF000030003000600060006000C000C000000B4
:101D00000000000000000300030003001B601FE050
:101D1000078007800FC00CC000000000000000001A
:101D200000000000000000000000000000000000B3
:101D3000000003000300030003003FF03FF0030036
:101D4000030003000300000000000000000000008A
:101D50000000000000000000000000000000000083
:101D600000000000000000000000038003000300EA
:101D70000600060004000000000000000000000053
:101D8000000000000000000000003FE03FE0000015
:101D90000000000000000000000000000000000043
:101DA0000000000000000000000000000000000033
:101DB000000000000000000000000380038003809A
:101DC0000000000000000000000000000060006053
:101DD00000C000C000C001800180030003000600B5
:101DE00006000C000C000C00180018000000000099
:101DF0000000000000000F801FC018C0306030607D
:101E00003060306030603060306018C01FC00F80BC
:101E100000000000000000000000000000000300BF
:101E20001F001F0003000300030003000300030062
:101E3000030003001FE01FE000000000000000009E
:101E40000000000000000F801FC038E0306000601C
:101E500000C00180030006000C0018003FE03FE0D6
:101E600000000000000000000000000000000F80E3
:101E70003FC030E0006000E007C007C000E0006045
:101E8000006060E07FC03F800000000000000000B4
:101E900000000000000001C003C003C006C00CC069
:101EA0000CC018C030C03FE03FE000C003E003E0DA
:101EB00000000000000000000000000000001FC043
:101EC0001FC0180018001F801FC018E000600060CD
:101ED000006030E03FC01F800000000000000000F4
:101EE00000000000000003E00FE01E0018003800B2
:101EF00037803FC038E03060306018E01FC0078096
:101F000000000000000000000000000000003FE0B2
:101F10003FE03060006000C000C000C00180018070
:101F20000180030003000300000000000000000027
:101F30000000000000000F801FC038E0306038E073
:101F40001FC01FC038E03060306038E01FC00F8015
:101F500000000000000000000000000000000F0072
:101F60001FC038C03060306038E01FE00F6000E014
:101F700000C003C03F803E000000000000000000E1
:101F800000000000000000000000000000000380CE
:101F900003800380000000000000038003800380B2
:101FA0000000000000000000000000000000000031
:101FB00000000000000001C001C001C000000000DE
:101FC000000003800300060006000400000000007B
:101FD00000000000000000000000003000F003C01E
:101FE00007001C0078001C00070003C000F0003050
:101FF00000000000000000000000000000000000E1
:102000000000000000007FF07FF0000000007FF083
:102010007FF0000000000000000000000000000051
:102020000000000000000000000030003C000F0035
:10203000038000E0007800E003800F003C003000E7
:102040000000000000000000000000000000000090
:102050000F801FC018601860006001C0038003007B
:102060000000000007000700000000000000000062
:1020700000000000000003800C8008401040104069
:1020800011C012401240124011C010000800084058
:1020900007800000000000000000000000000000B9
:1020A0001F801F80038006C006C00CC00C601FE0AC
:1020B0001FE03030787878780000000000000000E1
:1020C00000000000000000003F803FC01860186062
:1020D00018E01FC01FE01870183018303FF03FE0C4
:1020E00000000000000000000000000000000000F0
:1020F00007B00FF01C703830300030003000300076
:1021000038301C700FE007C0000000000000000025
:1021100000000000000000007F807FC030E03070D1
:102120003030303030303030307030E07FC07F8041
:10213000000000000000000000000000000000009F
:102140003FF03FF01830183019801F801F80198031
:10215000183018303FF03FF0000000000000000091
:1021600000000000000000003FF03FF01830183081
:1021700019801F801F801980180018003F003F0041
:10218000000000000000000000000000000000004F
:1021900007B01FF0187030303000300031F831F8DF
:1021A000303018301FF007C00000000000000000B1
:1021B00000000000000000003CF03CF018601860D7
:1021C00018601FE01FE01860186018603CF03CF0D9
:1021D00000000000000000000000000000000000FF
:1021E0001FE01FE0030003000300030003000300DF
:1021F000030003001FE01FE00000000000000000DB
:10220000000000000000000003F803F80060006018
:102210000060006030603060306030E03FC00F80B0
:1022200000000000000000000000000000000000AE
:102230003EF83EF818E019801B001F001D8018C0F2
:1022400018C018603E783E38000000000000000012
:1022500000000000000000003F003F000C000C00E8
:102260000C000C000C000C300C300C303FF03FF038
:10227000000000000000000000000000000000005E
:102280007878787838703CF034B037B037B0333085
:10229000333030307CF87CF8000000000000000093
:1022A000000000000000000039F03DF01C601E60DE
:1022B0001E601B601B6019E019E018E03EE03E6004
:1022C000000000000000000000000000000000000E
:1022D00007800FC01CE03870303030303030303084
:1022E00038701CE00FC007800000000000000000F4
:1022F00000000000000000003FC03FE018701830F0
:10230000183018701FE01FC0180018003F003F0071
:1023100000000000000000000000000000000000BD
:1023200007800FC01CE03870303030303030303033
:1023300038701CE00FC0078007B00FF00CE0000001
:1023400000000000000000003FC03FE0187018309F
:1023500018701FE01FC018E0186018703E383E1853
:10236000000000000000000000000000000000006D
:102370000FB01FF03870303038001F8007E0007059
:10238000303038703FE037C000000000000000002F
:1023900000000000000000003FF03FF03330333019
:1023A0003330030003000300030003000FC00FC01D
:1023B000000000000000000000000000000000001D
:1023C0003CF03CF0186018601860186018601860E5
:1023D00018601CE00FC00780000000000000000033
:1023E000000000000000000078F078F030603060FD
:1023F00018C018C00D800D800D8007000700070071
:1024000000000000000000000000000000000000CC
:102410007C7C7C7C301833983398339836D816D02F
:102420001C701C701C7018300000000000000000C0
:10243000000000000000000078F078F0306018C064
:102440000D80070007000D8018C0306078F078F02C
:10245000000000000000000000000000000000007C
:102460003CF03CF018600CC00780078003000300BC
:10247000030003000FC00FC00000000000000000B8
:1024800000000000000000001FE01FE0186018C0FE
:1024900001800300030006000C6018601FE01FE0CD
:1024A000000000000000000000000000000003C069
:1024B00003C0030003000300030003000300030044
:1024C0000300030003000300030003C003C0000077
:1024D00000000000180018000C000C000C000600A2
:1024E0000600030003000180018000C000C000C09E
:1024F00000600060000000000000000000000F000D
:102500000F000300030003000300030003000300A7
:10251000030003000300030003000F000F0000008E
:10252000000000000000020007000D8018C03060AD
:10253000202000000000000000000000000000005B
:10254000000000000000000000000000000000008B
:10255000000000000000000000000000000000007B
:10256000000000000000000000000000000000006B
:10257000FFFCFFFC000004000300008000000000DE
:10258000000000000000000000000000000000004B
:10259000000000000000000000000000000000003B
:1025A0000000000000000FC01FE000600FE01FE00F
:1025B000386030E03FF01F700000000000000000B5
:1025C0000000000000007000700030003000378014
:1025D0003FE0386030303030303038607FE0778036
:1025E00000000000000000000000000000000000EB
:1025F00000000000000007B01FF01830303030003D
:10260000300038301FF00FC0000000000000000054
:10261000000000000000007000700030003007B0C3
:102620001FF0187030303030303038701FF807B875
:10263000000000000000000000000000000000009A
:1026400000000000000007801FE018603FF03FF02E
:10265000300018301FF007C000000000000000002C
:1026600000000000000003F007F0060006001FE075
:102670001FE0060006000600060006001FE01FE03F
:10268000000000000000000000000000000000004A
:1026900000000000000007B81FF81870303030301C
:1026A000303018701FF007B0003000700FE00FC01E
:1026B00000000000000038003800180018001BC09F
:1026C0001FE01C6018601860186018603CF03CF057
:1026D00000000000000000000000000000000300F7
:1026E0000300000000001F001F00030003000300A0
:1026F000030003001FE01FE00000000000000000D6
:1027000000000000000003000300000000001FC0E4
:102710001FC000C000C000C000C000C000C000C09A
:1027200000C001C03F803F000000000000003800F2
:102730003800180018001BE01BE01B001E001E00E4
:102740001B00198039F039F0000000000000000083
:102750000000000000001F001F0003000300030032
:102760000300030003000300030003001FE01FE059
:102770000000000000000000000000000000000059
:102780000000000000007EE07FF033303330333053
:10279000333033307BB87BB800000000000000000D
:1027A00000000000000000000000000000003BC02E
:1027B0003FE01C6018601860186018603CF03CF046
:1027C0000000000000000000000000000000000009
:1027D00000000000000007801FE01860303030303B
:1027E000303018601FE0078000000000000000008B
:1027F00000000000000000000000000000007780E2
:102800007FE0386030303030303038603FE0378043
:10281000300030007C007C00000000000000000060
:1028200000000000000007B81FF81870303030308A
:10283000303018701FF007B00030003000F800F89A
:1028400000000000000000000000000000003CE06C
:102850003DF00F300E000C000C000C003FC03FC0DC
:102860000000000000000000000000000000000068
:1028700000000000000007E01FE018601E000FC00D
:1028800001E018601FE01F80000000000000000051
:1028900000000000000000000C000C000C003FE0F5
:1028A0003FE00C000C000C000C000C300FF007C0D7
:1028B0000000000000000000000000000000000018
:1028C00000000000000038E038E018601860186070
:1028D000186018E01FF00F700000000000000000FA
:1028E000000000000000000000000000000078F080
:1028F00078F0306018C018C00D800D800700070008
:1029000000000000000000000000000000000000C7
:1029100000000000000078F078F03260326037E0AC
:102920001DC01DC018C018C000000000000000003D
:1029300000000000000000000000000000003CF06B
:102940003CF00CC00780030007800CC03CF03CF05A
:102950000000000000000000000000000000000077
:1029600000000000000078F078F0306018C018C057
:102970000D800F800700060006000C007F007F001E
:1029800000000000000000000000000000001FE048
:102990001FE018C00180030006000C601FE01FE06C
:1029A000000000000000000000000000000001C066
:1029B00003C00300030003000300030007000E0030
:1029C0000700030003000300030003C001C0000070
:1029D00000000000000003000300030003000300E8
:1029E00003000300030003000300030003000300CF
:1029F00003000300030000000000000000001C00B2
:102A00001E00060006000600060006000700038000
:102A1000070006000600060006001E001C0000005D
:102A200000000000000000000000000000000000A6
:102A30000E003F3033F001E0000000000000000015
:102A40000000000000000000000000000000000086
:102A50000000000000000000000000000000000076
:102A600000000000000000000000000000000C005A
:102A70000C000C000C000C000C000C000C00000002
:102A80000C0000000000000000000000000000003A
:102A90001DC01DC0088008800880000000000000E4
:102AA00000000000000000000000000000000D8099
:102AB0000D800D800D803FC01B003FC01B001B0020
:102AC0001B001B00000000000000000004001F802D
:102AD0003180318038001E000F000380318031804A
:102AE0003F00040004000000000000000000180087
:102AF0002400240018C007801E00318002400240DC
:102B00000180000000000000000000000000000044
:102B10000F001800180018000C001D80370033004B
:102B20001D80000000000000000000000000000008
:102B30000700070002000200020000000000000081
:102B40000000000000000000000000000000030082
:102B5000030006000E000C000C000C000C000E0020
:102B60000600030003000000000000000000180041
:102B700018000C000600060006000600060006000D
:102B80000C001C00180000000000000000000600FF
:102B900006003FC03FC00F001F80198000000000EA
:102BA0000000000000000000000000000000000025
:102BB00000000400040004003F800400040004003E
:102BC0000000000000000000000000000000000005
:102BD00000000000000000000000000000000600EF
:102BE00004000C00080008000000000000000000C5
:102BF00000000000000000003F8000000000000016
:102C000000000000000000000000000000000000C4
:102C100000000000000000000000000000000C00A8
:102C20000C000000000000000000000000C000C018
:102C3000018001800300030006000C000C00180056
:102C400018003000300000000000000000000E00FE
:102C50001B003180318031803180318031801B0018
:102C60000E00000000000000000000000000060050
:102C70003E000600060006000600060006000600EC
:102C80003FC00000000000000000000000000F0036
:102C9000198031803180030006000C0018003000DC
:102CA0003F800000000000000000000000003F0026
:102CB0006180018003001F0003800180018061802A
:102CC0003F000000000000000000000000000700BE
:102CD00007000F000B001B00130033003F800300B0
:102CE0000F800000000000000000000000001F80B6
:102CF0001800180018001F00118001800180218039
:102D00001F0000000000000000000000000007801D
:102D10001C00180030003700398031803180198064
:102D20000F000000000000000000000000007F0015
:102D30004300030006000600060006000C000C001D
:102D40000C000000000000000000000000001F0058
:102D50003180318031801F0031803180318031807D
:102D60001F000000000000000000000000001E0026
:102D700033003180318033801D80018003000700E3
:102D80003C00000000000000000000000000000007
:102D9000000000000C000C000000000000000C000F
:102DA0000C00000000000000000000000000000017
:102DB0000000000003000300000000000000060007
:102DC00004000800080000000000000000000000EF
:102DD00000C0030004001800600018000400030095
:102DE00000C0000000000000000000000000000023
:102DF0000000000000007FC000007FC00000000055
:102E000000000000000000000000000000000000C2
:102E1000600018000400030000C003000400180054
:102E20006000000000000000000000000000000042
:102E30001F0031803180018007000C000C00000071
:102E40000C000000000000000000000000000E0068
:102E5000110021002100270029002900270020005F
:102E600011000E0000000000000000000000000043
:102E70003F000F000900198019801F8030C030C04A
:102E800079E00000000000000000000000000000E9
:102E90007F003180318031803F003180318031804E
:102EA0007F000000000000000000000000000000A3
:102EB0001F4030C0604060006000600060403080B3
:102EC0001F000000000000000000000000000000E3
:102ED0007F00318030C030C030C030C030C0318061
:102EE0007F00000000000000000000000000000063
:102EF0007F803080308032003E0032003080308071
:102F00007F800000000000000000000000000000C2
:102F10007FC03040304032003E0032003000300090
:102F20007C00000000000000000000000000000025
:102F30001E80318060806000600067C061803180E9
:102F40001F00000000000000000000000000000062
:102F50007BC03180318031803F8031803180318051
:102F60007BC0000000000000000000000000000026
:102F70003FC0060006000600060006000600060028
:102F80003FC0000000000000000000000000000042
:102F90001FC003000300030003006300630063001D
:102FA0003E000000000000000000000000000000E3
:102FB0007BC03180330036003C003E00330031805E
:102FC00079C00000000000000000000000000000C8
:102FD0007E0018001800180018001840184018400B
:102FE0007FC00000000000000000000000000000A2
:102FF000E0E060C071C07BC06AC06EC064C060C0E9
:10300000FBE00000000000000000000000000000E5
:1030100073C0318039803D80358037803380318086
:1030200079800000000000000000000000000000A7
:103030001F00318060C060C060C060C060C031806F
:103040001F00000000000000000000000000000061
:103050007F0031803180318031803F00300030008E
:103060007E000000000000000000000000000000E2
:103070001F00318060C060C060C060C060C031802F
:103080001F000CC01F8000000000000000000000B6
:103090007F003180318031803E00330031803180CB
:1030A0007CE00000000000000000000000000000C4
:1030B0001F803180318038001F00038031803180D3
:1030C0003F000000000000000000000000000000C1
:1030D0007F804C804C804C800C000C000C000C005D
:1030E0003F000000000000000000000000000000A1
:1030F0007BC03180318031803180318031803180BE
:103100001F000000000000000000000000000000A0
:103110007BC0318031801B001B001B000A000E00A9
:103120000E00000000000000000000000000000091
:10313000FBE060C064C06EC06EC02A803B803B80F4
:1031400031800000000000000000000000000000CE
:103150007BC031801B000E000E000E001B00318072
:103160007BC0000000000000000000000000000024
:1031700079E030C019800F00060006000600060046
:103180001F800000000000000000000000000000A0
:103190003F8021802300060004000C00188030804E
:1031A0003F800000000000000000000000000780D9
:1031B00006000600060006000600060006000600DF
:1031C000060006000780000000000000300030000C
:1031D000180018000C000C0006000300030001801A
:1031E000018000C000C000000000000000001E00C0
:1031F000060006000600060006000600060006009F
:10320000060006001E0000000000000004000A0086
:103210000A00110020802080000000000000000053
:10322000000000000000000000000000000000009E
:10323000000000000000000000000000000000008E
:1032400000000000000000000000FFE00800040093
:10325000020000000000000000000000000000006C
:10326000000000000000000000000000000000005E
:10327000000000001F00018001801F80318033802A
:103280001DC00000000000000000000000007000F1
:10329000300030003700398030C030C030C0398055
:1032A00077000000000000000000000000000000A7
:1032B000000000001E8031806080600060803180EE
:1032C0001F0000000000000000000000000003805C
:1032D000018001801D803380618061806180338046
:1032E0001DC0000000000000000000000000000001
:1032F000000000001F00318060C07FC0600030C04F
:103300001F8000000000000000000000000007E037
:103310000C000C003F800C000C000C000C000C009A
:103320003F800000000000000000000000000000DE
:10333000000000001DC033806180618061803380A7
:103340001D80018001801F0000000000000070004F
:103350003000300037003980318031803180318059
:103360007BC000000000000000000000000006001C
:10337000060000001E00060006000600060006000B
:103380003FC0000000000000000000000000060038
:10339000060000003F0003000300030003000300D9
:1033A0000300030003003E00000000000000700066
:1033B00030003000378036003C003C0036003300DF
:1033C00077C00000000000000000000000001E00A8
:1033D00006000600060006000600060006000600BD
:1033E0003FC00000000000000000000000000000DE
:1033F000000000007F8036C036C036C036C036C000
:1034000076E0000000000000000000000000000066
:1034100000000000770039803180318031803180B8
:103420007BC0000000000000000000000000000061
:10343000000000001F00318060C060C060C03180AB
:103440001F0000000000000000000000000000005D
:10345000000000007700398030C030C030C03980B3
:103460003700300030007C00000000000000000049
:10347000000000001DC03380618061806180338066
:103480001D800180018007C00000000000000000D6
:10349000000000007B801CC01800180018001800F5
:1034A0007F0000000000000000000000000000009D
:1034B000000000001F8031803C001F00038031802D
:1034C0003F000000000000000000000000001800A5
:1034D000180018007F001800180018001800188045
:1034E0000F000000000000000000000000000000CD
:1034F0000000000073803180318031803180338062
:103500001DC00000000000000000000000000000DE
:10351000000000007BC0318031801B001B000E00CA
:103520000E0000000000000000000000000000008D
:1035300000000000F1E060C064C06EC03B803B80D2
:1035400031800000000000000000000000000000CA
:10355000000000007BC01B000E000E000E001B00D0
:103560007BC0000000000000000000000000000020
:103570000000000079E030C0198019800B000F00B6
:10358000060006000C003E000000000000000000E5
:10359000000000003F80218003000E0018003080F2
:1035A0003F80000000000000000000000000060056
:1035B0000C000C000C000C000C0018000C000C009F
:1035C0000C000C00060000000000000000000600D7
:1035D00006000600060006000600060006000600BB
:1035E00006000600060000000000000000000C00BD
:1035F000060006000600060006000300060006009E
:10360000060006000C0000000000000000000000A2
:1036100000000000000018002480030000000000EB
:10362000000000000000000000000000000000009A
:10363000000000000000000000101010101000003A
:1036400010000000006C484800000000000000006E
:10365000001414287C287C285050000000103840AA
:103660004038487010100000002050200C700814E2
:10367000080000000000001820205448340000001A
:1036800000101010100000000000000000080810DA
:10369000101010101008080000202010101010103A
:1036A0001020200000107C102828000000000000DE
:1036B0000000101010FE10101000000000000000AC
:1036C000000000181030200000000000007C000006
:1036D000000000000000000000000030300000008A
:1036E0000004040808101020204000000038444462
:1036F00044444444380000000030101010101010F2
:103700007C00000000384404081020447C000000C5
:10371000003844041804044438000000000C141459
:1037200024447E040E000000003C202038040444A1
:1037300038000000001C2040784444443800000059
:10374000007C4404080808101000000000384444BD
:10375000384444443800000000384444443C0408E1
:103760007000000000000030300000303000000029
:1037700000000018180000183020000000000C1095
:10378000608060100C000000000000007C007C00E5
:10379000000000000000C02018041820C000000035
:1037A0000000182404081000300000003844444C85
:1037B00054544C40443800000030102828287C44E1
:1037C000EE00000000F8444478444444F80000004F
:1037D000003C4440404040443800000000F0484471
:1037E00044444448F000000000FC44507050404401
:1037F000FC000000007E22283828202070000000F5
:10380000003C4440404E44443800000000EE444434
:103810007C444444EE000000007C10101010101096
:103820007C000000003C08080848484830000000C0
:1038300000EE444850704844E6000000007020202C
:10384000202024247C00000000EE6C6C545444447E
:10385000EE00000000EE64645454544CEC00000090
:103860000038444444444444380000000078242490
:10387000243820207000000000384444444444446C
:10388000381C000000F8444444784844E20000003A
:1038900000344C40380404645800000000FE9210CC
:1038A000101010103800000000EE4444444444441A
:1038B0003800000000EE44442828281010000000C2
:1038C00000EE4444545454542800000000C64428D8
:1038D00010102844C600000000EE442828101010E4
:1038E00038000000007C4408101020447C000000D8
:1038F00000382020202020202020380000402020D8
:1039000020101008080800000038080808080808F7
:1039100008083800001010284400000000000000D3
:103920000000000000000000000000FE0010080081
:10393000000000000000000000000038443C444447
:103940003E00000000C0405864444444F8000000B9
:103950000000003C4440404438000000000C0434A7
:103960004C4444443E00000000000038447C404089
:103970003C000000001C207C202020207C00000057
:10398000000000364C4444443C04380000C0405819
:1039900064444444EE000000001000701010101049
:1039A0007C00000000100078080808080808700073
:1039B00000C0405C48705048DC000000003010102F
:1039C000101010107C000000000000E85454545403
:1039D000FE000000000000D864444444EE000000F3
:1039E000000000384444444438000000000000D87F
:1039F000644444447840E000000000364C444444B1
:103A00003C040E000000006C302020207C000000F0
:103A10000000003C44380444780000000000207C92
:103A2000202020221C000000000000CC4444444C14
:103A300036000000000000EE44442828100000007A
:103A4000000000EE4454545428000000000000CC54
:103A500048303048CC000000000000EE4424281814
:103A6000101078000000007C481020447C0000000A
:103A70000008101010102010101008000010101076
:103A8000101010101010000000201010101008105E
:103A9000101020000000000000245800000000006A
:103AA000E022520080180268914203D34368D21882
:103AB000914202D380680028F5D170471848016808
:103AC00000290ED18021490281600909416000214D
:103AD000C943C160016104214161124A1160124968
:103AE00001600120704738B407230C0008341C42E1
:103AF00001D1002304E008240D000835641B234095
:103B0000C918D21A8161C260012313434B60282374
:103B100089184B6002490969C16131BC70470000D6
:103B2000701B00201C1A00206859883CF1B586B033
:103B300007200C000834044201D1002404E00824CA
:103B40000D000835641B0440091902911100083169
:103B5000014201D1002004E0082114000834091BAF
:103B60000840101800900298C71800980299411A4E
:103B7000CC1A0326334302994B60874201D301F0EC
:103B800019FB012500984068284001D101F012FB83
:103B9000102C01D201F00EFB009806998969884229
:103BA00009D10698C06800190699C86006998F6106
:103BB00005437D608EE10699496988420AD10698DD
:103BC000806800190699886006994F6105437D60F9
:103BD00038507FE140680640012E00D0D7E0072131
:103BE00088430490C00820284AD200998E68C9688A
:103BF0000191039000980199884201D101F0DAFA0D
:103C00000098B04201D101F0D5FA00984068072130
:103C100088430399C900884201D001F0CBFA039888
:103C2000C00006990818010028318E4209D0069973
:103C300009698E4200D2A2E0F168009A914200D058
:103C40009DE00199B14208D106980168039A0120CC
:103C5000904081430698016093E0283081420AD069
:103C6000084606990969884200D288E08068009970
:103C7000884200D083E00198F0600198866080E07F
:103C80000098806901900098C66886420ED08068CE
:103C900006990969884226D3C168009A914222D1C7
:103CA000B16891421FD1C660B0601EE01430066852
:103CB000002E07D1009810300668002E15D001E0C4
:103CC00008000668310014310A68002AF8D1310072
:103CD00010310A68002AF3D106990969884202D393
:103CE0000021016001E001F065FA0198002848D048
:103CF000982040000099C9698900069A511808184F
:103D00000099026891420CD10660002E19D10698E4
:103D100041680098C2690120904081430698416043
:103D20002FE0019806990969884208D30069009933
:103D30008842019801D1066103E0466101E001F08B
:103D400039FA002E1DD006980069864217D30199D2
:103D5000B16100990969002906D0814202D331611D
:103D60008E6101E001F026FA00984069002808D031
:103D700006990969884202D37061866101E001F009
:103D800019FA0498009908180090049824180098CB
:103D90004068A843009948600120204378603C5166
:103DA000E008202827D20090C00006990818283083
:103DB00001900646102C01D201F0FCF9069800682B
:103DC00000990200CA402A4004D18D40054306985C
:103DD000056009E00198806806990969884201D365
:103DE000060001E001F0E6F901988760F760BE6027
:103DF0000198F8606EE0200A01D1002223E0290436
:103E0000884201D31F221EE0FF21C9434118090C3B
:103E1000082211408840314A8218120C04231A40AB
:103E200090402F4BC3181B0C022633400E26711AEC
:103E3000891AC91A9840C00B08184100C01D2200F9
:103E4000C2402A408A18982040009100069B5918C9
:103E50000918FA61002078613861069B5B681E00D2
:103E6000D6402E4005D195401D43069845600F6011
:103E70001DE009681F2A01D1002302E0192352081E
:103E80009B1A22009A4000E029004B680725AB43AB
:103E9000A34210D0D30F9B00CB18103352001D68E3
:103EA000002DF1D106980069834211D31F60B961DA
:103EB000FF60BF600EE08A68069B1B69994207D3CA
:103EC0009A4205D3D7608F60BA60F960B86101E0AB
:103ED00001F070F90298083007B0F0BD00F0FFFF64
:103EE00000C0FFFFF2B586B00400894800680028D2
:103EF00001D1FFF7E3FD86488168069840182F300E
:103F0000491E88430699814200D3CDE1DC21490056
:103F1000615800290AD0D8225200A218126810183D
:103F2000824200D3C0E1814200D2BDE101F05CF9E0
:103F3000002800D1B8E1009005680021C9438842FB
:103F400000D1B1E1D820400022181068401910605B
:103F5000DA21490061180A68824200D202000A6030
:103F6000A069002835D12069002802D0009981423B
:103F700001D2009820610098E02149006050E220C1
:103F800040002550002608302650614800686062D5
:103F90000020C043206220002830C06001000831AA
:103FA0000860C9608960B61C1030202EF5D3C04867
:103FB000844203D1283D2A00009927E0201F006891
:103FC000072188432118083900984019421A283AD5
:103FD0001CE0E0204000201800E08068002819D094
:103FE0000099426803689A189142F6D1017B09074B
:103FF00010D4A1691A4691420CD34368D218914259
:1040000008D259194160E0684219A1692000FFF700
:104010006AFD35E100982169884200D22061E020E4
:10402000400020180099491900E08068002810D04D
:1040300002688A42F9D1017B09070AD4009901601C
:10404000416849194160069B00992000FFF76EFD09
:104050002BE1A76939002000FFF722FD41680068C5
:10406000401805902F38002601000831490701D17A
:10407000002105E0082102000832891A4907490F8A
:10408000401839001031884201D2019700E00190B8
:104090000198083004900198183003900296280087
:1040A000283800990831490701D1002205E008218C
:1040B000009A0832891A4A07520F00998918801A03
:1040C000A161E060012202434A6028220818426090
:1040D0000F480069E0610498400701D001F06AF8D8
:1040E0001B20019948600498E021490061181022C2
:1040F00001F0A4F80098E02149006050E22040005F
:10410000255008302650049808316050059802E088
:10411000701B002003910399091D0722039B5A601D
:10412000029A521C02920A1D8242F3D3029802287C
:1041300001DA01F03FF80198B84200D1A0E0C11BBC
:10414000426801239A43426001220A437A60016077
:10415000C808202821D20090C00026182836350033
:10416000102901D201F026F8206800990200CA4007
:10417000D10705D40121009A91400143216007E055
:10418000B0682169884201D3050001E001F012F80E
:10419000B760EF60BD60FE6072E0080A01D10022E6
:1041A00028E01A04904201D31F2223E0FF22D243C9
:1041B0008218120C08231A40009290403D4A82183F
:1041C000120C04231A4090403B4BC3181B0C0225D1
:1041D0002B4001930E23009D5B1B9A1A019BD21A60
:1041E0009840C00B10184200C01D0B00C340D807F8
:1041F000C00F1218982040009300E3181818009080
:10420000FA617E613E6160680300D340DB0707D43A
:1042100001219140014361600098076000981DE012
:10422000009800681F2A01D1002302E019235208D8
:104230009B1A0A009A4000E0280043680725AB4318
:104240008B420FD0D30F9B00C318103352001D6850
:10425000002DF1D121698B4210D31F60B861FF603E
:10426000BF600DE081682269904207D3914205D377
:10427000CF608760B960F860BE6101E000F09AFF2E
:10428000E068069981420FD2411AE160A069069A5E
:104290008218A26101220A43A1694A600699032299
:1042A0000A434260083000E0002007B0F0BD000083
:1042B0006018002000F0FFFF00C0FFFFF2B584B0DF
:1042C00004000020009004984542000A25D0802177
:1042D0004902884201D31F201FE0FF21C943411832
:1042E000090C082211408840B34A8218120C04239A
:1042F0001A4090400E4BC3181B0C022633400E266A
:10430000711A891AC91A9840C00B08184100049AFA
:10431000C01DC240D007C00F081898214900820074
:10432000A2185158002929D01F2803D1002304E0E6
:1043300000C0FFFF19224308D31A049A9A400023B1
:1043400000E052004E680727BE43049FF61BAE42B2
:1043500002D2009135000CD04E69D70FBF00C919A9
:104360000969002E02D08E4200D033000029E8D126
:10437000190000293FD1009900293ED101210122D5
:10438000824050004342034362681A4000D177E103
:1043900050421040401E020B10231A40D0404309E7
:1043A00008263340D840860804273E400296F04055
:1043B000460802273E400196F040460831409826C4
:1043C0007600D218029BD218019BD2185218C8400E
:1043D00010188000201881590DE00100486807225C
:1043E0009043049A801AA84201D2050000910869FE
:1043F0000028F2D149690029F0D10098002800D1A5
:104400003EE1A0680499401A854200D338E1009E3D
:104410002069864200D231E177186818029000982E
:104420004068072188430299884201D000F0C2FE0B
:10443000BE4200D322E10098806901900098C668CE
:1044400086420DD080682169884225D3C168009AD0
:10445000914221D1B16891421ED1C660B0601DE089
:1044600014300668002E07D1009810300668002E20
:1044700014D001E008000668310014310A68002AEF
:10448000F8D1310010310A68002AF3D1216988423D
:1044900002D30021016001E000F08CFE01980028A9
:1044A00043D0982040000099C96989006118081814
:1044B0000099026891420AD10660002E16D1606808
:1044C0000121009AD2699140884360602DE00198F3
:1044D0002169884208D3006900998842019801D176
:1044E000066103E0466101E000F064FE002E1CD08E
:1044F0002069864217D30198B061009800690028AE
:1045000007D02169884202D33061866101E000F062
:1045100051FE00984069002807D02169884202D3E3
:104520007061866101E000F045FE03200121102D3D
:104530000AD2029A1043009A50600298009A10180A
:1045400042681143416096E0049A1043009A50601B
:104550000120284378607D51E808202819D2C20044
:10456000A6182836350022681300C3400B4003D13B
:1045700081401143216007E0B0682169884201D37E
:10458000050001E000F016FEB760EF60BD60FE6060
:1045900071E0280A01D100222AE00A04904201D3E6
:1045A0001F2225E0FF22D2438218120C08231A4052
:1045B00001929040004A01E000F0FFFF8218120CC7
:1045C00004231A409040304BC3181B0C0226334082
:1045D00002930E23019E9B1B9A1A029BD21A9840AB
:1045E000C00B10184200C01D2B00C3400B40D21856
:1045F000982040009300E3181818FA6100237B61AB
:104600003B6163681E00D6400E4004D191401943BF
:10461000616007601CE000681F2A01D1002202E0EF
:10462000192152088A1A2900914000E010004268BE
:1046300007239A43AA420FD0CA0F9200831810335F
:1046400049001A68002AF1D121698B4211D31F60F9
:10465000B861FF60BF600EE081682269904208D3B4
:10466000914206D3CF608760B960F8600020B861DE
:1046700001E000F09FFD0098083002E000F09AFD94
:10468000002005B0F0BD000000C0FFFFF3B585B00D
:10469000416848420840401E010B10221140C840AA
:1046A000420908231A40D040830804242340D840FC
:1046B000450802242540E840012446082640982762
:1046C0007F008918C91849198919F0400818800015
:1046D00005990818C0590700416807229143069AB6
:1046E0008D1A09E00800416807229143069A891A49
:1046F000A94201D20D00070001690029F2D14069E9
:104700000028F0D105980069874200D2E1E0B8188E
:104710000490069828180190786807218843019929
:10472000884201D000F046FD0498874200D3D0E0D3
:10473000B8690090FE68BE420DD0B8680599096955
:10474000884226D3C168B94223D1B168B94220D189
:10475000C660B0601FE0380014300668002E07D134
:10476000380010300668002E15D001E008000668F9
:10477000310014310A68002AF8D1310010310A687A
:10478000002AF3D105990969884202D3002101600A
:1047900001E000F00FFD0098002843D09820400071
:1047A000F9698900059A5118081801688F420BD1E0
:1047B0000660002E16D105984168FA6901209040E4
:1047C0008143059841602DE000981169884207D324
:1047D0000069B842009801D1066103E0466101E03A
:1047E00000F0E8FC002E1DD005980069864217D322
:1047F0000098B0613869002808D005990969884295
:1048000002D33061866101E000F0D4FC78690028B1
:1048100008D005990969884202D37061866101E078
:1048200000F0C8FC0320102D08D2019908437860DD
:104830000198381841680C43446047E006990843E2
:1048400078600120284304994860049845510598F0
:1048500080680090C608202E01D300F0ABFC0098C1
:1048600000282ED00598406903900196F000059924
:1048700008182830029006460098102801D200F04F
:1048800099FC0598006801990200CA40224004D1B1
:104890008C4004430598046009E0029880680599FB
:1048A0000969884201D3060001E000F083FC039807
:1048B000029988600398F0600398866002980399D3
:1048C000C8600598856004980599486108373800E4
:1048D00002E000F06FFC002007B0F0BDF0B587B03B
:1048E0000400C046C046BC4FF52C00D328E10B2C79
:1048F00001D2102402E00B3407208443E008019029
:1049000038680199C8400325284250D00126012269
:10491000824388180190C0003C182834A068009099
:104920000198C000039000984068072188430399CC
:10493000884201D000F03EFC009880680290009808
:10494000A04201D100F036FC00980299884201D1C2
:1049500000F030FC009840680721884303998842A2
:1049600001D000F027FC0298844206D13968019AF0
:1049700001209040814339600DE03969884208D3B5
:10498000C0680099884204D10298A0600298C4606F
:1049900001E000F00FFC0398054300984560039880
:1049A0000099081841680E434660009D07E1B96808
:1049B000A14200D3D7E0002800D1B7E00126019939
:1049C00001228A405100019A90404A420A43024023
:1049D00051421140491E080B10221040C1404A09A3
:1049E00008231A400092D1408A0804231A400192F9
:1049F000D1404A0802231A400292D1404A0832406C
:104A0000009BC018019BC018029BC0188018D140A1
:104A100040180390C0003818283000908068049037
:104A20000398C000029004984068072188430299C7
:104A3000884201D000F0BEFB049880680190049881
:104A40000099884201D100F0B5FB04980199884291
:104A500001D100F0AFFB0498406807218843029918
:104A6000884201D000F0A6FB00980199884206D147
:104A70003968039A012090408143396010E008466C
:104A8000396988420AD3C0680499884206D10198DE
:104A90000099886000980199C86001E000F08AFBE5
:104AA0000298001B03902543049845600498001960
:104AB000059003983043059948600398059A105073
:104AC000B8680190C408202C01D300F073FB019852
:104AD000002825D0786902900094E0003D18283520
:104AE0002C000198102801D200F064FB386800996E
:104AF0000200CA40324003D18E4006433E6007E0C8
:104B0000A8683969884201D3040001E000F052FB33
:104B10000298A8600298E060029884600298C560DC
:104B20000398B86005987861049D48E0786800288B
:104B300036D021003800FFF7A9FD050013D045E06D
:104B40003F20C043844202D30024E4430BE00B34F3
:104B5000072084437868002805D021003800FFF73B
:104B6000ADFB050032D1BA68A24219D3111B786996
:104B700001260325102908D302197A61B9600E4372
:104B8000566051502543456008E00021B9607961C5
:104B90001543456081184A6816434E6005000EE0D3
:104BA000F86884420DD2001BF860BD692919B9610B
:104BB00001210143B8694160032020436860083542
:104BC00004E021003800FFF78DF90500C046C0461B
:104BD000280007B0F0BD000060180020002800D1B8
:104BE0007047F0B583B008380400C046C046984806
:104BF0000069844200D2CEE26168032203230B40A5
:104C0000012B00D1C7E2CE08F600A31900930125BD
:104C1000294242D12368114000D1BEE2F618594220
:104C20006418844200D2B6E2894949698C4200D1B5
:104C3000FCE0D908202900D384E0A768E06801904F
:104C400002910198844201D100F0B4FABC4201D132
:104C500000F0B0FA6068072188430299C9008842D1
:104C600001D000F0A7FA0298C000794908180100A5
:104C700028318F4206D0764909698F425FD3F9689F
:104C8000A1425CD10199B94249D171480168029AA7
:104C90000120904081436E4801600098844200D317
:104CA00079E24068284200D175E2810700D5BEE173
:104CB0000099674A9269914200D0CDE06448C0688B
:104CC00081196348C16084610D4365604069844215
:104CD00003D100205E4A506190605D48C0698842FF
:104CE00000D35AE25B480068002801D1FEF7E6FED7
:104CF00057488169002900D14FE2C068292802D3B2
:104D00005348FEF7CDFE5248C0695149C9688842F0
:104D100000D342E20020C0434D49C8613DE2283043
:104D2000814207D008464A490969884207D380680A
:104D3000A04204D10198F86001988760ADE700F0C7
:104D400039FAAAE7A1690191E768A7420BD0A168E7
:104D5000814224D3C868A04221D1B868A0421ED1A4
:104D6000CF60B9601DE0210014310F68002F07D11A
:104D7000210010310F68002F13D001E011000F68DF
:104D80003A0014321368002BF8D13A00103213683D
:104D9000002BF3D1814202D30020086001E000F033
:104DA00009FA0198002800D177E798204000E169CE
:104DB0008900274A5118081801688C420AD10760F7
:104DC000002F15D15168E2690120904081432048AD
:104DD000416062E701981169884207D30069A042E7
:104DE000019801D1076103E0476101E000F0E2F9B9
:104DF000002F00D151E71648006987429FD30199DF
:104E0000B9612169002906D0814202D339618F61DD
:104E100001E000F0CFF96069002800D13DE70C49BE
:104E2000096988428BD37861876136E700984068CA
:104E30000240032A00D030E70548866000984068A9
:104E4000A8430099486035436560A651A5E100BFBD
:104E500060180020701B0020894A5269914209D1D4
:104E6000874880688019864988604C610543656081
:104E7000205092E1072188433618C00820284AD2E2
:104E800000998F68C9680291019000980299884240
:104E900001D100F08FF90098B84201D100F08AF9F1
:104EA00000984068072188430199C900884201D0D1
:104EB00000F080F90198C0007149081801002831FC
:104EC0008F4209D06E4909698F4200D2A2E0F96889
:104ED000009A914200D09DE00299B94208D16848F9
:104EE0000168019A0120904081436548016093E088
:104EF000283081420AD0084661490969884200D2B7
:104F000088E080680099884200D083E00298F860C9
:104F10000298876080E00098806901900098C768D7
:104F200087420ED0806856490969884226D3C168F5
:104F3000009A914222D1B96891421FD1C760B860EE
:104F40001EE014300768002F07D100981030076862
:104F5000002F15D001E008000768390014310A68F5
:104F6000002AF8D1390010310A68002AF3D14449E7
:104F70000969884202D30021016001E000F01AF9BA
:104F80000198002848D0982040000099C9698900FC
:104F90003B4A511808180099026891420CD10760E9
:104FA000002F19D1364841680098C269012090400D
:104FB0008143334841602FE00198314909698842B3
:104FC00008D3006900998842019801D1076103E084
:104FD000476101E000F0EEF8002F1DD0284800697D
:104FE000874217D30199B96100990969002906D050
:104FF000814202D339618F6101E000F0DBF8009853
:105000004069002808D01E490969884202D37861A6
:10501000876101E000F0CEF8012030436060A651C6
:1050200017484069844209D115488660B5E0A84315
:1050300000994860012030436060A651F0082028A4
:1050400029D20090C0000E49081828300190074668
:10505000102E01D200F0AEF8094800680099020055
:10506000CA402A4004D18D400543054805600BE045
:105070000198806802490969884203D3070003E068
:105080006018002000F096F801988460FC60A7602A
:105090000198E06081E0300A01D1002225E0290476
:1050A000884201D31F2220E0FF21C9434118090C87
:1050B00008221140009188403A494118090C042205
:1050C00011408840384A8218120C02231A400E23DD
:1050D000009FDB1B591A891A9040C00B0818410029
:1050E000C01D3200C2402A408A189820400091001A
:1050F0002E4B59180918E2610020606120615B683D
:105100001F00D7402F4005D195401D4327484560DB
:105110000C601DE009681F2A01D1002302E0192359
:1051200052089B1A32009A4000E029004B6807257C
:10513000AB43B34210D0D30F9B00CB1810335200B7
:105140001D68002DF1D119480069834211D31C60FC
:10515000A161E460A4600EE08A68144B1B69994267
:1051600007D39A4205D3D4608C60A260E160A0614D
:1051700001E000F01FF80D48006A401E0B4908626C
:105180000BD10B48006800E080680028FCD10020AB
:10519000C043086201E000F00DF8C046C04603B00D
:1051A000F0BD000000F0FFFF00C0FFFF601800200E
:1051B000281A002080B5012000F05AF801BD38B44B
:1051C000012100220368001D002B0BD00468001D84
:1051D0000C4202D04D466D1E64192260241D1B1F17
:1051E000F0D0FAE732BC704707490868002801D0C0
:1051F0000020704705480722904308600449914306
:10520000091A0160704700BFB01B0020C73300209F
:10521000C0630020124207D08B0706D00B78491CD0
:105220000370401C521EF7D87047830706D00B78D6
:10523000491C0370401C521EF9D1704770B4103ADB
:1052400003D378C9103A78C0FBD2530701D318C9E9
:1052500018C001D508C908C0D20704D30B88038041
:10526000891C801C002A01D50B78037070BC704724
:1052700001491820ABBEFBE72600020003E00B78D3
:105280000370491C401C13005A1E002BF7D17047B5
:10529000130000D1704780B50A00190001F026FB09
:1052A00001BDF1B5002000220023B34C0C255D4365
:1052B00065192F68002F17D0BC468027BF00009EBD
:1052C000F659B44511D16F68BC468027BF00009ED7
:1052D000F619B668B44508D12D893E46009FBE191F
:1052E000F688B54201D103E001225B1C022BDDD31D
:1052F000022B05D1002A0ED102290CD01220F2BDBA
:10530000002907D10C214B43E11849898022520022
:10531000914200D11020F2BDF2B501000022002020
:1053200080239B00C9180B68934C8F680C2545435C
:1053300065192E689E4206D16E68BE4203D12D8942
:10534000CE88B54202D0401C0228EFD3022810D1EB
:1053500000202568002D03D00120E568002D11D123
:105360000C25454365192B608B686B60C9882981C2
:105370006A810C21414361184A89009B002B06D0A9
:10538000002A01D00020F2BD8022520000E0521C11
:105390004A81401CF2BD401E022813D20C21484312
:1053A000754909184A89002080235B009A4201D080
:1053B000002A01D1488103E0521E4A81120402D121
:1053C000086070470220704710B5002100220C23AE
:1053D0005343694CE3181C68844200D11960521C85
:1053E000022AF4D310BDF8B506009B483718F878A8
:1053F000002827D08620800030184469012322002D
:105400003100387801F0C0FA002801D00120F2BD47
:10541000F8708620800030188068201A8621890064
:10542000715888420ED2BD780AE08620800030583C
:105430002418012322003100387801F0A5FA6D1EEE
:10544000022DF2D20020F2BD70B505000C008B20B9
:1054500080002E183068844210D02800FFF7C3FF68
:10546000002808D1012322002900C148285C01F04E
:105470007FFA002801D0012070BD3460002070BD8B
:10548000F8B50400FFF7AFFF050063D17248271895
:10549000401E205C032855D1B648261830780128D4
:1054A00050D18022920000212000FFF7F1FE55200C
:1054B000FF2149006054AA20491C605452202070EA
:1054C00060706120A0704121E1707222F2235B00C4
:1054D000E2545B1CE2545A1CA154511C60548420B9
:1054E000800020180168921CA15401680904090E6B
:1054F000521CA1540168090C521CA1540068000EF2
:10550000511C60548320800020180168921CA15413
:1055100001680904090E521CA1540168090C521CAF
:10552000A1540068000E511C60548720800022584E
:10553000521C1030225001232100387801F024FA47
:105540000020307000220021387801F029FA00286C
:1055500000D001252800F2BD891E85229200821804
:1055600013689B1E994201D300207047A14BC05C79
:105570004143506908187047581B0020F1B582B0AC
:105580000C00022C07D3802080000299081800909C
:105590004069844201D30120FEBD974D00980078F8
:1055A000012804D055D3032839D026D351E0600810
:1055B00027180098006A790A41180298FFF744FFFB
:1055C000002846D12800384002990E5C7F1C0098C4
:1055D000006A790A41180298FFF736FF002838D18F
:1055E0003D400298405D000230430600E00701D5CF
:1055F0003009FEBD3005000DFEBD0098006A210A8D
:1056000041180298FFF720FF002822D160000540D2
:10561000029841194878000209780843FEBD0098B5
:10562000006AE10941180298FFF70EFF002810D127
:10563000A000054002984119C87800068A78120433
:105640000243487800021043097801430801000929
:10565000FEBD0020C043FEBD01020000F0B583B0D6
:1056600007000E0014000220022E00D27FE001028B
:10567000791849698E427AD25F4D0102795C01291D
:1056800004D070D3032953D040D36CE07008301895
:105690000090681C3818006A0099490A41183800BF
:1056A000FFF7D2FE00285ED1009828403A18F00794
:1056B000C00F01900F26002804D01178314020013E
:1056C000084300E0200010700098401C009001206A
:1056D00041027918087140023818006A0099490A95
:1056E00041183800FFF7B0FE00283CD100990D406A
:1056F0007A190199002901D0260905E01178F023D3
:105700000B40210A0E401E4316702CE00002381890
:10571000006A310A41183800FFF796FE002822D1AE
:1057200071000D407A1914702104090E51701AE0AD
:1057300000023818006AF10941183800FFF784FEAA
:10574000002810D1B1000D407A19D1780906090F4F
:10575000090721430C0011700904090E5170210C36
:105760009170210ED17001214A02BA181171FEBD4B
:105770000102000005020000F1B582B00C00022C0D
:1057800013D3842080000299081800904068844256
:105790000BD2002559480818019021000298FFF704
:1057A000EDFE070024D0012F01D1022520E00126C3
:1057B0000020C043874201D1012519E000222100C9
:1057C0000298FFF74BFF050012D1009800680021F6
:1057D000C943884207D0401C0099086001980078AE
:1057E0000643019806703C00009840688442D4D378
:1057F0002800FEBD02020000FF010000F2B5070014
:10580000012600290AD1832080003D58002D03D0B5
:105810003818806885420ED301250CE0FFF7AEFEF4
:10582000022801D20120F2BD8321890079188968FC
:10583000884247D3009D2C00641C832080003818C8
:105840008068844202D30224022D32D32100380022
:10585000FFF794FE002824D18E4A21003800FFF77C
:10586000FDFE002807D10098002806D0220001463E
:105870003800FFF7F3FE00281DD1832080003C5044
:10588000381840680021C94388421AD0401E83213D
:105890008900791848601948381801780E43067055
:1058A0000FE00021C94388420CD001280AD0AC4245
:1058B000C2D10020F2BD012802D10024E44300E05F
:1058C00001242000F2BD10B5802292008218546A93
:1058D000241D480A70491268515C01F08AF801E001
:1058E000401A241D2168241D002901D1002010BD6B
:1058F0008842F5D22168401810BD00000502000062
:1059000070B50C00802189004518EC80A968012938
:105910002ED0802080002A6810184269914227D238
:10592000002903D10178032902D1416A002906D157
:105930000021E96001898C421AD2406A1DE080781A
:10594000060100E0A41B2868A4B2B44212D3FFF7FA
:1059500015FE01000020C043814201D1012070BD2D
:10596000022905D3852080002A6810588142E9D396
:10597000022070BDE960FFF7EFFD210940182861A2
:105980002007C00D296808186861002070BDF8B5AF
:105990000E00802189004418E7887F1CBFB2002FC9
:1059A00026D02069002823D039076BD1401C206104
:1059B000206839494218E168002903D1D08887421C
:1059C00060DB15E03B091278521E1A405AD1FFF7EE
:1059D000D5FD0500022D16D30020C043854243D0DB
:1059E00020688521890041588D4245D3002E01D180
:1059F0000420F2BDE168FFF701FF050001D1072097
:105A0000F2BD012D01D10220F2BD0020C04385422C
:105A10002AD02068FFF7E7FC002825D180229200D9
:105A200000212068FFF734FC29002068FFF794FD6F
:105A30008B21890022685050002607E08B208000CF
:105A4000216808180168491C0160761C2068124909
:105A500041180A78F6B2964208D201208870206870
:105A6000FFF7C1FC0028E9D00120F2BD8B2189009D
:105A700040180168891B0160E56029002068FFF774
:105A80006BFD2061E7803807C00D21680818606150
:105A90000020F2BDFFFFFF0F020200000200C87EDF
:105AA00000028B7E184380239B00D25C032A06D120
:105AB0000200487D0002097D08430004104370473E
:105AC00081760A04120EC276090C0175090A417525
:105AD0007047F2B507000420C1017E180025316926
