:020000040800F2
:1000000058180020659F0008D19E0008D39E000864
:1000100000000000000000000000000000000000E0
:10002000000000000000000000000000D59E000855
:100030000000000000000000D79E0008D99E0008C4
:1000400023250008675E0008D7880008039400088D
:100050006B940008479F0008539F0008E59E000826
:10006000899F00088B9F00088D9F00088F9F0008C4
:10007000919F0008939F0008959F0008979F000894
:10008000999F00089B9F00089D9F00089F9F000864
:10009000A19F0008A39F0008A59F0008A79F000834
:1000A000A99F0008AB9F0008AD9F0008AF9F000804
:1000B000B19F0008B39F0008B59F0008B79F0008D4
:1000C000F0B481B002B40100002000230024A74A4C
:1000D0008025AD0049191668002E0BD00F68BE426E
:1000E00009D156688F68BE4205D11689CF88BE42B5
:1000F00001D137E00123641CD668002E01D1012311
:100100000AE00F68BE4207D116698F68BE4203D16C
:10011000968ACF88BE4225D0641C9669002E01D1F4
:1001200001230AE00F68BE4207D1D6698F68BE423C
:1001300003D1168CCF88BE4214D0641C566A002EA0
:1001400001D101230AE00F68BE4207D1966A8F6889
:10015000BE4203D1968DCF88BE4203D0641C30329C
:100160000C2CB8D30C2C06D1002B11D100990229EC
:100170000ED012200CE00099002908D16100091965
:1001800089007A4A511849896A08914200D11020A1
:1001900002B0F0BC7047F0B481B003B4002100207D
:1001A000724A140080239B00009DEB18DD88802399
:1001B0009B00009EF3189E6880239B00009FFB58C5
:1001C00027689F4205D16768B74202D12789AF42AD
:1001D00021D0401CE7689F4205D12769B74202D170
:1001E000A78AAF4217D0401CA7699F4205D1E76993
:1001F000B74202D1278CAF420DD0401C676A9F42A4
:1002000005D1A76AB74202D1A78DAF4203D0401CE7
:1002100030340C28D4D30C2828D1002014002568B1
:10022000002D0FD0401CE568002D0BD0401CA569A7
:10023000002D07D0401C656A002D03D0401C3034CF
:100240000C28ECD30C281BD044002418A40014194B
:10025000236080239B00009DEB189B6863608023D4
:100260009B00009DEB18DB88238161814100091808
:10027000890051184A89019B002B06D0002A01D021
:10028000002005E08022520000E0521C4A81401C00
:1002900003B0F0BC7047401E0C2814D2410008186F
:1002A0008000324909184A89002080235B009A4265
:1002B00001D0002A01D1488103E0521E4A81120474
:1002C00002D10860704702207047F0B581B0060087
:1002D0005D483718F878002828D08620800030182C
:1002E0004469012322003100387802F073F80028B5
:1002F00001D001201BE0F870862080003018806853
:10030000201A86218900715888420FD2BD78022DAB
:100310000CD36D1E86208000305824180123220043
:100320003100387802F056F86D1EF3D1002001B08C
:10033000F0BD70B505000C008B2080002E183068D1
:10034000844210D02800FFF7C0FF002808D1012305
:10035000220029003C48285C02F030F8002801D037
:10036000012070BD3460002070BD0000DC0E002054
:1003700070B50400FFF7A9FF050063D1802080005D
:10038000205C032855D1314826183078012850D1F7
:1003900080218900200002F063F85520FF214900E8
:1003A0006054AA20491C6054522020706070612063
:1003B000A0704121E1707222F2235B00E2545B1CC9
:1003C000E2545A1CA154511C60548420800020180F
:1003D0000168921CA15401680904090E521CA15421
:1003E0000168090C521CA1540068000E511C605495
:1003F0008320800020180168921CA1540168090420
:10040000090E521CA1540168090C521CA154006829
:10041000000E511C6054872080002258521C10305E
:100420002250012321002B38205C01F0D3FF002053
:100430003070002200210448205C01F0D7FF002822
:1004400000D00125280070BD010200000502000057
:10045000F0B583B007000C00022C05D3802080008B
:100460003E187069844201D3012090E03078012861
:1004700005D000D289E0032862D044D385E060082B
:1004800020180090306A0099490A4518F06A8542A0
:100490000DD03800FFF719FF002876D101232A007C
:1004A0003900707801F08AFF00286ED1F56200985B
:1004B000C005C00D3D5C0098401C0090306A00995A
:1004C000490A40180190F16A88420ED03800FFF7BF
:1004D000FCFE002859D10123019A3900707801F0FF
:1004E0006DFF002851D10198F0620098C005C00D41
:1004F000385C000228430500E00701D5280946E0E2
:100500002805000D43E0306A090A4518F06A854263
:100510000DD03800FFF7D9FE002836D101232A007C
:100520003900707801F04AFF00282ED1F562600092
:10053000C005C00D3918487800020978084326E044
:10054000306AC9094518F06A85420DD03800FFF7B6
:10055000BCFE002819D101232A003900707801F06F
:100560002DFF002811D1F562A000C005C00D39187B
:10057000C87800068A7812040243487800021043C3
:10058000097801430801000901E00020C04303B0DD
:10059000F0BDF1B582B00E001400022E06D380200B
:1005A000800002990F187869864201D30225AAE0DB
:1005B0003878012805D000D2A2E0032877D057D39D
:1005C0009EE0700830180090386A0099490A451872
:1005D000F86A85420DD00298FFF777FE002818D1FF
:1005E00001232A000299787801F0E8FE002810D152
:1005F000FD6200250098C005C00D02990918012070
:100600000640019607D00A7813071B0F22011A43F0
:1006100002E0012575E022000A700099491C009152
:100620003871386A0099490A4618F86A86420DD02E
:100630000298FFF74AFE0028EBD10123320002990D
:10064000787801F0BBFE0028E3D1FE620098C00577
:10065000C00D029909180198002801D0200905E071
:100660000878F02202402005000F1043087048E08F
:10067000386A310A4518F86A85420DD00298FFF7AA
:1006800024FE0028C5D101232A000299787801F0C0
:1006900095FE0028BDD1FD6200257000C005C00D8B
:1006A000029909180C702004000E487029E0386A7D
:1006B000F1094518F86A85420DD00298FFF705FE4A
:1006C0000028A6D101232A000299787801F076FE4D
:1006D00000289ED1FD620025B000C005C00D029922
:1006E0000918C8780006000F0007204304000870AE
:1006F0000004000E4870200C8870200EC87000E0C6
:10070000022501203871280003B0F0BDF1B582B098
:100710000C00022C11D38020800002990E18706901
:1007200084420AD2002521000298FFF791FE009032
:10073000002800D1BBE0012801D10225B7E000214B
:10074000C943884201D10125B1E0022C00D29BE0CF
:100750007069844200D397E03078012846D000D2F7
:100760008EE0032801D024D38AE0306AE1094518DD
:10077000F06A85420DD00298FFF7A7FD002878D1D6
:1007800001232A000299707801F018FE002870D128
:10079000F5620025A000C005C00D02990818C178B7
:1007A0000906090F0907057045708570090EC170AB
:1007B00067E0306A210A4518F06A85420DD0029838
:1007C000FFF783FD002854D101232A000299707895
:1007D00001F0F4FD00284CD1F56200256000C00551
:1007E000C00D02990818057045704AE06008271886
:1007F000306A790A4518F06A85420DD00298FFF7F1
:1008000064FD002835D101232A000299707801F097
:10081000D5FD00282DD1F5620025F805C00D0299FF
:10082000081801210C400194224602D002781207D8
:10083000120F02707F1C3171306A790A4418F06A15
:1008400084420DD00298FFF740FD002811D101230A
:1008500022000299707801F0B1FD002809D1F462FC
:10086000F805C00D029908180199002903D000214C
:1008700004E0012505E00278F0211140017000E05C
:1008800002250120307100E00225002D0FD13069D2
:100890000021C943884205D0401C30617079012194
:1008A00001437171009C7069844200D23BE72800CB
:1008B00003B0F0BDF2B584B0070000290AD1802052
:1008C00080003E18F568002D02D0706985420FD374
:1008D00001250DE0FFF7BCFD022801D20120EFE069
:1008E0008021890079184969884200D2E8E0049D96
:1008F0002C00641C802080003E187069844203D361
:100900000224022D00D2D2E021003800FFF7A0FD22
:10091000002800D0C2E0022C00D2A5E07069844219
:1009200000D3A1E03078012847D000D298E0032816
:1009300001D025D394E0306AE1094518F06A854278
:100940000ED03800FFF7C1FC002800D081E0012361
:100950002A003900707801F031FD002879D1F56264
:100960000025A000C005C00D3818C1780A068049CE
:100970001143FF22027042708270090EC17070E054
:10098000306A210A4518F06A85420DD03800FFF719
:100990009CFC00285DD101232A003900707801F009
:1009A0000DFD002855D1F56200256000C005C00D81
:1009B0003818FF220270427053E06008201800903F
:1009C000306A0099490A4518F06A85420DD038000E
:1009D000FFF77BFC00283CD101232A003900707806
:1009E00001F0ECFC002834D1F56200250098C00528
:1009F000C00D3818E107C90F029103D00278F02129
:100A0000114300E0FF2101700098401C009001207C
:100A10003071306A0099490A40180190F16A8842A1
:100A20000ED03800FFF751FC002812D10123019AA3
:100A30003900707801F0C2FC00280AD10198F062F8
:100A40000098C005C00D38180299002903D0FF2175
:100A500004E0012505E002780F211143017000E058
:100A600002250120307100E00225280007D10498FA
:100A7000002806D0220001463800FFF78AFD002832
:100A800017D1F46030690021C943884217D0401E55
:100A90003061707901210143717110E00021C94377
:100AA00088420DD001280BD0AC4200D021E70020B5
:100AB00006E0012802D10024E44300E001242000E4
:100AC00005B0F0BDF0B581B00C008021890045185B
:100AD000EC80A86801282DD02A6851184A699042F4
:100AE00028D2002803D10878032802D1486A0028B8
:100AF00006D10020E860088984421BD2486A2BE0B6
:100B000089780F010026F64300E0E41B2A68A4B2AE
:100B1000BC4211D301001000FFF79AFCB04201D192
:100B2000012022E0022805D3852189002A68515836
:100B30008842EAD3022018E0E860801E85218900FF
:100B400051180B689B1E984201D3002004E0094B0A
:100B5000D25C504349694018210940182861200798
:100B6000C00D296808186861002001B0F0BD0000C0
:100B7000FFFFFF0F02020000F1B582B00C008020E1
:100B8000800002990818C088401C80B2002801909B
:100B900040D080208000029908180069002839D0D0
:100BA0000199090700D00DE1401C80218900029ABB
:100BB0005118086180208000029908588C49421819
:100BC000891E029B5918C968002905D10198D1884E
:100BD000884200DAF6E01DE0019B1B091278521EE4
:100BE0001A4000D0EEE0FFF733FC0090022821D33A
:100BF0000025ED43A84200D1BDE08020800002998D
:100C000008580099852292008258914200D2BAE099
:100C1000002C01D10420E8E080218900029A5118BB
:100C2000C968FFF747FE0090002801D10720DCE0EB
:100C3000012801D10220D8E0A84200D19BE0802009
:100C4000800002990E58401C3718F878002827D0E9
:100C50008620800030184469012322003100387852
:100C600001F0B8FB002800D085E0F87086208000F5
:100C700030188068201A86218900715888420FD266
:100C8000BD78022D0CD36D1E8620800030582418AC
:100C9000012322003100387801F09CFB6D1EF3D156
:100CA00080218900029A505801F0DAFB80208000F0
:100CB000029908580099891E85239B00C3181C6857
:100CC000A41EA14201D3002104E0494C025D51431E
:100CD0005A6989188B229200815000272AE0924994
:100CE0007118C8708620800030188068201A86210C
:100CF00089007158884212D28B4830188578022DAD
:100D00000DD36D1E86208000305824180123220048
:100D100031008548305C01F05DFB6D1EF2D18B2007
:100D2000800080218900029A515808180168491CE6
:100D300001607F1C80208000029908582C494118CE
:100D40000A78FFB2974218D20120887040020299B7
:100D50000E58401C3018C0780028E0D08620800053
:100D6000301844690123220031006F48305C01F0E3
:100D700031FB0028B3D0012037E08B2189004018D7
:100D80000168C91B0160009880218900029A5118EE
:100D9000C86080208000029908580099891E852229
:100DA0009200821813689B1E994201D3002004E030
:100DB0000F4BC05C41435069081880218900029A9A
:100DC00051180861019880218900029A5118C88041
:100DD00001980007C00D80218900029A5158081817
:100DE0008021890051184861002003B0F0BD000047
:100DF000020200000200C87E00028B7E184380239E
:100E00009B00D25C032A06D10200487D0002097DC6
:100E1000084300041043704781760A04120EC2761C
:100E2000090C0175090A41757047F2B50424E10106
:100E300046185EE00123220029003B48285C01F0AF
:100E4000BDFA002865D13C60002470690178002952
:100E500026D0C07A8006800EE5290BD02E2909D035
:100E60000F2807D0082801D1012000E000200099B8
:100E7000884256D0F5886D1CADB2002D10D0306977
:100E800000280DD00F272F402ED1401C3061306834
:100E900026494218F168002904D1D088854223DB15
:100EA00004243CE02B091278521E1A401CD1FFF793
:100EB000CFFA02282FD30021C943884229D03168B4
:100EC000852292008A1813689842E9D2F060801E49
:100ED00013689B1E984201D3002004E0134BC95CA9
:100EE0004843516940183061F5807801316808182D
:100EF00070613069002810D0040035688B208000B4
:100F00002F18386884429FD02800FFF7DEF90028A8
:100F100090D0012403E0022401E0002C01D0002045
:100F20003061200001B0F0BD0102000002020000AB
:100F3000F1B584B00021FFF7C5FD002800D03EE1E7
:100F4000029040E00299491C0291012900D139E147
:100F5000802080001018C088401C80B200280190BA
:100F600000D186E08020800010180069002800D1A0
:100F70007FE00199090714D1401C80218900511894
:100F800008618020800004990818C168002945D1B3
:100F90000198B0498A1E049B9A585118C988884202
:100FA00067DA019880218900049A5118C880019855
:100FB0000007C00D80218900049A5158081880212B
:100FC000890051184861802080000499081805693B
:100FD000802080000C582C3026183068854210D0B4
:100FE0002000FFF772F9002800D0E4E001232A0076
:100FF00021009948205C01F0E1F9002800D0DAE0F6
:101000003560002080218900049A511849690978C7
:10101000E52997D0002995D0029099E7802080009B
:10102000049A1058019A12098A4BC35C5B1E134044
:10103000B7D1FFF70DFA0090022800D2BDE00024DE
:10104000E443A04200D1B6E0802080000499085813
:101050000099852292008258914200D28BE0802133
:101060008900049A5118C968FFF724FC00900028F1
:1010700001D10720A6E0012800D19EE0A04200D1C6
:1010800099E08020800004990858FFF71EF9002895
:1010900000D090E080218900049A505801F0E0F9D6
:1010A00080208000049908580099891E85239B00A0
:1010B000C3181C68A41EA14201D3002104E0654CA2
:1010C000025D51435A6989188B2292008150002792
:1010D00041E001218170480204990E58401C3018EB
:1010E000C07800282CD08620800030184469012365
:1010F000220031005848305C01F06CF900285AD1C8
:1011000055497118C8708620800030188068201AF0
:10111000862189007158884212D24F48301885784C
:10112000022D0DD36D1E8620800030582418012317
:10113000220031004848305C01F04CF96D1EF2D1BC
:101140008B20800080218900049A5158081801687A
:10115000491C01607F1C8020800004990958801C74
:1011600008180278FFB29742B3D38B20800008188A
:101170000168C91B0160009880218900049A5118F8
:10118000C86080208000049908580099891E852233
:101190009200821813689B1E994201D3002004E03C
:1011A0002C4BC05C41435069081880218900049A87
:1011B00051180861F5E6012004E0022002E004284D
:1011C00000D156E7060040D180208000049908181D
:1011D0000569802080000C582C302718386885421B
:1011E0000ED02000FFF771F8002831D101232A002A
:1011F00021001948205C01F0E1F8002828D13D6069
:1012000020210801049A1018406901F029F9802072
:10121000800004990818406980218900049A5118B7
:1012200089690A780270491C401C05220B780370FA
:101230004B784370891C801C521EF7D101208121FC
:1012400089004202049B9A585054F0B205B0F0BD98
:101250000126FAE70202000001020000F2B582B0A6
:10126000096801E00199491C0191019909782F2928
:10127000F8D05C29F6D086218900405800902022C1
:101280000B2101F0C5F8002300200022082105E011
:1012900008295AD108200B219B061B0E019CA45C37
:1012A000521C212C03DB2F2C01D05C2C07D1019D7B
:1012B000AA18029D2A60212C44DA042443E02E2C33
:1012C000E6D0884241D2802C08DB1D0003232B434B
:1012D000DBB200BF2DA52C19803C24782A4E00E0FB
:1012E000761C3778002F13D0A74211D0761C3778A0
:1012F000002F0DD0A7420BD0761C3778002F07D0D7
:10130000A74205D0761C3778002F01D0A742E7D13D
:101310003578002D19D12500413D1A2D04D21D002C
:1013200002232B43DBB209E02500613D1A2D05D2D3
:101330001D0001232B43DBB2203CE4B2009D2C5462
:10134000401CABE70024002801D106201AE00098D9
:101350000078E52802D10520009A1070082900D1F4
:101360009B009807800F012802D12000102404431D
:101370000C201840042802D12000082404430098BF
:10138000C472002003B0F0BD549F000880818283A6
:101390008485868788898A8B8C8D8E8F9091929395
:1013A000949596979899AD9B8C9DAE9FA021A2A3F2
:1013B000A4A5A6A7A8A9AAABACADAEAFB0B1B2B375
:1013C000B4B5B6B7B8B9BABBBCBDBEBFC0C1C2C365
:1013D000C4C5C6C7C8C9CACBCCCDCECFD0D1D2D355
:1013E000D4D5D6D7D8D9DADBDCDDDEDFC0C1C2C3C5
:1013F000C4C5C6C7C8C9CACBCCCDCECFD0D1D2D335
:10140000D4D5D6F7D8D9DADBDCDDDE9F50B483B093
:1014100002B4093184229200821800201368002B44
:101420002CD0526800232E24D65C5B1C202E08D0C2
:10143000052E00D1E526092B01D10C70491C0E7038
:10144000491C0B2BF0D3D37A009C2372D37F1B064D
:10145000947F24041C43537F1B022343147F1C43AB
:10146000009B1C60537E1B02147E2343009CA380C0
:10147000D37D1B02927D1343009AD380087004B081
:1014800050BC704701000022D24310000B68002BB3
:1014900000D1704710B481B018783038092808D2CC
:1014A0005C783A2C05D19B1C0B60012802DB1000F4
:1014B00000E0002001B010BC7047F3B581B008789F
:1014C0002F2801D05C2801D1481C02908020800088
:1014D00001990C180020A06002980078202818D2EA
:1014E00000210198FFF7EEFA00216161F0E0C17E72
:1014F0000902827E11438022920023689A5C032AAB
:1015000006D10A00417D0902007D0143090411430F
:10151000A16002A90198FFF7A1FE002800D0D7E042
:101520000025E080A068012842D08021890022683F
:1015300051184A6990423BD2002803D10878032809
:1015400002D1486A002805D1E560088900282FD01B
:10155000486A2BE089780E0108E0022828D385210B
:10156000890022685158884222D2AD1BADB2B542E3
:1015700009D301002068FEF76BFF0021C9438842B0
:10158000EBD1012075E0E0602168801E8522920089
:101590008A1813689B1E984201D3002004E06F4B09
:1015A000C95C48435169401829094018206108E086
:1015B00002205EE0694BD25C5043496940182061CB
:1015C000E5802807C00D2168081860612669256834
:1015D0008B2080002F18386886420ED02800FEF736
:1015E00074FE0028CDD10123320029005C48285C1C
:1015F00000F0E4FE0028C4D13E60002061690A7852
:10160000002A35D0CA7A12071DD4A2690A230D78A0
:101610001678AD1B521C491C002D12D11E00731EE2
:10162000002E0ED00D781678AD1B521C491C002DD3
:1016300007D15B1E0D781678AD1B521C491C002D7E
:10164000ECD0002D15D0E5886D1CADB2002D0FD06B
:10165000206900280CD02907B2D1401C20612068E5
:101660003E494218E16800290CD1D0888542A7DBA9
:101670000420A169C97A002822D0042828D149076A
:1016800026D424E02B091278521E1A4098D1FEF776
:10169000DFFE02288CD30021C943884200D170E7C5
:1016A00022688521890051180B689842E0D2E060D9
:1016B000801E0B689B1E984200D27BE700207EE7CD
:1016C000490705D46069C17AC90600D50FE705202E
:1016D00003B0F0BDF0B581B005000C00FF20400064
:1016E0002E180020B0718B2080002F180020C043DE
:1016F000386084420DD02800FEF7E7FD002811D1A4
:10170000012322002900F07800F058FE002809D1BA
:101710003C6070780002317808431249884203D057
:10172000022018E0032016E036350F48A978090496
:101730006A7812020A4329781143814208D0A97FAE
:1017400009046A7F12020A43297F1143814201D1B1
:10175000002000E0012001B0F0BD00000202000006
:101760000102000055AA000046415400F0B587B0C0
:1017700007000800150000213960FFF783FE06000E
:1017800001D50B20FDE1B000984908184468002CF1
:1017900001D10C20F5E13C6080208000205C002815
:1017A0000BD09348205C00F0FFFDC10705D4002D4D
:1017B00000D1E5E1400711D4E2E100208021890059
:1017C0006054481C2654205C00F0DEFDC10701D5A2
:1017D0000320D6E1002D03D0400701D50A20D0E137
:1017E000002700212000FFF775FF0500012D60D1C3
:1017F000DF2040002018017900290BD0C17A0906AA
:10180000827A12040A43417A09021143007A08439A
:10181000039000E00397E720400020180179002999
:101820000BD0C17A0906827A12040A43417A09026E
:101830001143007A0843049000E00497EF20400031
:101840002018017900290BD0C17A0906827A120486
:101850000A43417A09021143007A0843059000E0E7
:101860000597F72040002018017900290BD0C17A94
:101870000906827A12040A43417A09021143007A66
:101880000843069000E00697002603A80090009801
:101890000768002F04D039002000FFF71BFF00E08D
:1018A0000220050005D0761C0098001D0090042E33
:1018B000EDD3032D01D1012063E1002D00D0B5E06F
:1018C000207B0002E17A084380218900884200D011
:1018D000ACE0E07D0002A17D084301900ED12720FD
:1018E000205C00062621615C090401432520205C60
:1018F000000208432421615C014301910198862183
:1019000089006050207C15396054012802D00228DB
:1019100000D08BE0019941430191617B9A482154A9
:10192000002900D182E0481E014200D07EE0A07C68
:101930000602607C0643822080002652300775D163
:10194000207D0002E27C10430DD12320205C0206A2
:101950002220205C000410432122A25C12020243D8
:101960002020205C1043E27B1202A37B1A430092EA
:101970005CD0019BD2183309D2180292904255D301
:10198000801A00F071FD002850D0012201257F4906
:10199000884200D302257E49884200D30325852151
:1019A00089006118801C08608720800027500098FB
:1019B000381888239B00E050029838180833E0500C
:1019C000032D17D1002E31D12F20205C02062E20AE
:1019D000205C000410432D22A25C120202432C2042
:1019E000205C10430968890015E000BFE40F002067
:1019F00001020000002E19D0882080002058019B91
:101A0000C0180968022D01D1490004E04B005B18A1
:101A10005B080A40991889229200A0508620800015
:101A20002058253A8918490A884201D20D20A8E099
:101A30000020C043842189006050091F661830606F
:101A40008020C91F6054032D73D13120205C000217
:101A50003021615C084301286BD17F1C8B20800002
:101A60002058874210D02000FEF72FFC002860D1BC
:101A700001233A0021007E48205C00F09FFC0028F2
:101A800057D18B208000275000207A4960547A4833
:101A9000205C0002C91F615C08437849884248D134
:101AA000E0780006A1780904014360780002084349
:101AB00021780143724881423BD1FF20E830205C0D
:101AC0000006F3214900615C09040143FF20E63070
:101AD000205C00020843F2214900615C014369482F
:101AE000814226D1FF20EC30205C0006F521490020
:101AF000615C09040143FF20EA30205C00020843D6
:101B0000F4214900615C0143842080002150213888
:101B1000205C0006F7214900615C09040143FF20B5
:101B2000EE30205C00020843F6214900615C01436D
:101B3000316080208000255453480088401C524961
:101B4000088052496052002151480268A24201D1E6
:101B500000220260491CC268A24201D10022C26078
:101B6000491C8269A24201D100228261491C426A59
:101B7000A24201D100224262491C30300C29E4D338
:101B8000002007B0F0BD000002020000F60F0000C8
:101B9000F6FF000000B581B000280FD08021890039
:101BA00040180168002909D08022920089180A781B
:101BB000002A03D0CA888088824201D0092007E029
:101BC000487800F0F1FBC00701D5032000E00020B9
:101BD00001B000BD73B500290CD009783039002060
:101BE000092909D2019B5B783A2B05D1012901DA39
:101BF000002902D50B2039E000218900224B591819
:101C00004B68002B1BD00025214C26689E4200D13A
:101C100020606D1CE6689E4200D1E0606D1CA669E4
:101C20009E4200D1A0616D1C666A9E4200D1606236
:101C30006D1C30340C2DE8D38025AD005855009B29
:101C4000002B01D148600AE080239B00009CE054F7
:101C5000009848600098002801D0012A01D0002097
:101C600004E0002201A96846FFF780FD02B070BDC4
:101C70000102000005020000FF01000055AA00005B
:101C80005252614172724161E40F0020060200006D
:101C9000DC0E0020F3B5FFB08EB0002801D1092082
:101CA00006E10027802080008D990F50D406E40EB5
:101CB000FE2222408EA905AB1818FFF757FD05003C
:101CC00000D0F4E002A88B908E9905A8FFF7F5FBF1
:101CD00005008A9E0DD1002E01D1062509E0FE20C7
:101CE0002040411E8941C943C90F05A8FEF7E8F904
:101CF00005001C20044200D18FE0002D00D184E0BB
:101D0000042D1CD100206C490A68002A0FD0401C09
:101D1000CA68002A0BD0401C8A69002A07D0401CE0
:101D20004A6A002A03D0401C30310C28ECD30C281E
:101D300001D1122002E005A8FFF7FAF80500200003
:101D4000082404438A9E002D38D120073DD500F099
:101D50005DFB0090B07300980004000EF0730098D3
:101D6000000C30740098000E7074F7723777777734
:101D7000B777F77731008598FFF73CF80190B77691
:101D8000F77637757775012081218900859A50543F
:101D90000198002814D08598283141580091019964
:101DA000FEF7B4FC050009D185980199491E8322EC
:101DB000920081500099FEF7BCFA0500002D76D103
:101DC000200702D52000202404438B208000859921
:101DD0000858802189008D9A5118C86180208000A0
:101DE0008D9908180662FE202040411E8941C94392
:101DF000C90F05A8FEF7CFF9802189008D9A5118E7
:101E00008862002816D1022551E0F07A112108429B
:101E10000ED1600799D5082549E0002DCED1F07A82
:101E2000C10601D5042542E0A107C9D5C007C7D521
:101E300007253CE0802080008D990818847180215E
:101E400089008D9A5118CF71859C31002000FEF7D2
:101E5000D1FF802189008D9A51180861F07F00061A
:101E6000B17F09040143707F00020843317F0143C1
:101E7000802080008D9A1018C160802080008D998C
:101E800008188760802080008D990818876180205D
:101E900080008D9908184762802080008D990C5031
:101EA000801D205A802189008D9A51188880280031
:101EB0007FB010B0F0BD0000DC0E0020F9B583B09B
:101EC000150000910020049908600398FFF762FE56
:101ED000002800D0EEE08020800003990C18E07903
:101EE000002800D0E6E0A079C00701D40720E1E097
:101EF000E068A168401AA84233D8050031E0A76124
:101F0000A068C205D20D80208000801A854200D8CA
:101F100028000099039B9A18002816D083079B0F6E
:101F200005D016780E70521C491C5B1EF9D183082F
:101F30000BD016780E7056784E7096788E70D678D4
:101F4000CE70121D091D5B1EF3D100990918009176
:101F5000A1680918A160049909680918049A116018
:101F60002D1A002D00D1A4E0A368D805C8D120689F
:101F70005149415C5A0A4E1E1640F6B2002E019697
:101F800037D1002B01D120692CE0666A002E26D0C3
:101F9000361D100000F068FA01E0401A361D316865
:101FA000361D002901D100201CE0884214D3401ABC
:101FB000716808360029F6D088420DD3401A71683E
:101FC00008360029EFD0884206D3401A71680836D7
:101FD0000029E8D08842E0D23168401802E0616907
:101FE000FEF736FA022814D30021C94388425DD097
:101FF000606120686269921E85239B00C3181E6879
:10200000B61EB24205D22C4E815D4A435B69D2189E
:1020100001D102204BE0019BD7186E0A28D09A19F3
:10202000914200D2CE1AF3B23A0000998C4623496D
:10203000405C614600F0C2F9002837D1A079400623
:1020400014D5A069C01BB04210D2400200990A18F2
:10205000039980200B7813704B7853708B789370B2
:10206000CB78D370091D121D401EF3D170026CE7AE
:10207000A269BA4200D142E7A17949060BD50123F2
:1020800003990E4E805D00F0A5F900280ED1A079CD
:10209000BF210140A17101233A0003990748266836
:1020A000305C00F08BF9002800D128E70120E071B6
:1020B00000E0002005B0F0BD0202000001020000B7
:1020C00070B50500FFF766FD00284BD1802189001F
:1020D0006C18A1792026314244D048060FD501233F
:1020E000A269290020482568285C00F073F90028BF
:1020F00001D0012070BDA079BF210140A171E1692B
:102100002068FEF716F900282CD1256AE87A0643E4
:10211000EE72E0682877E0680004000E6877E068F7
:10212000000CA877E068000EE87721692800FEF728
:1021300073FE00F06BF9A8750104090EE975010C36
:102140002976000E68760020A874E874A079DF2153
:102150000140A1710120812189002268505420682A
:10216000FEF706F970BD00000102000010B5040082
:10217000FFF7A6FF00280ED12000FFF70BFD002877
:1021800009D1802080002418A06AFEF784F8002876
:1021900001D10021216010BDF3B585B0002801D127
:1021A0000920A9E0002206A901A8FFF7DFFA00280C
:1021B00000D09AE0802080000599081800900198CE
:1021C0000099086002A80099886106990598FFF7B0
:1021D00074F9002800D084E000984169002908D0F3
:1021E000C87AC00600D47EE00198FEF703FE00998D
:1021F000886042480199085A009988800021059812
:10220000FEF760FC00286CD100998B680021002B40
:1022100002D1009AD1616FE00022394D009CE6881E
:1022200024682F68A74205D16F689F4202D12F8989
:10223000B74221D0521CEF68A74205D12F699F42B7
:1022400002D1AF8AB74217D0521CAF69A74205D15D
:10225000EF699F4202D12F8CB7420DD0521C6F6A9A
:10226000A74205D1AF6A9F4202D1AF8DB74203D0DA
:10227000521C30350C2AD4D30C2A21D10022204DF7
:102280002E68002E0FD0521CEE68002E0BD0521C70
:10229000AE69002E07D0521C6E6A002E03D0521C6D
:1022A00030350C2AECD30C2A13D05500AD18AD00F4
:1022B000134E75192C606B60009BDB882B81698144
:1022C0005100891889000E4B59184B895B1C4B81B2
:1022D000511C009AD1610099C96900290CD11220C2
:1022E00005E0042801D1052001E0002804D00021E8
:1022F00080229200059B995007B0F0BD06020000B5
:10230000DC0E002070B584B004000D00FFF742FC25
:10231000002822D1002D04D100212000FEF7D2FB9D
:102320001BE08420800026186846B0600021200051
:10233000FEF77BFD042802D10020306001E0002878
:102340000BD129002000FFF761F800212000FEF7E3
:1023500013FC042801D10020306004B070BD38B4F3
:10236000012100220368001D002B0BD00468001D12
:102370000C4202D04D466D1E64192260241D1B1FA5
:10238000F0D0FAE732BC704710B5010000201E4AB9
:1023900053181C78002C06D10120187088001018E2
:1023A00040680068804710BD00B581B080001649C4
:1023B000081840684068804701B000BD10B50400AF
:1023C000080011001A00A3000F4CE3185B689B681B
:1023D000984710BD10B50400080011001A00A300B2
:1023E000094CE3185B68DB68984710BD00B581B005
:1023F0000300080011009A00034B9A1852681269F2
:10240000904701B000BD0000D80F002000207047A9
:102410001206130A1A43130C1A4300BF094205D0CF
:10242000830705D00270401C491EF9D17047000097
:10243000130030B414001500103902D310393CC019
:10244000FCD2490700D30CC000D504C0890002D3D8
:102450000280801C002900D5027030BC704700004B
:102460000022DBE70022E3E70022030A8B420BD2C3
:1024700003098B4219D243088B422ED2411A00D253
:102480000146524110467047FF2209023FD0120612
:102490008B4205D3121209028B4201D31212090298
:1024A00003098B4219D300E0090AC3098B4201D307
:1024B000CB01C01A524183098B4201D38B01C01A50
:1024C000524143098B4201D34B01C01A52410309C7
:1024D0008B4201D30B01C01A5241C3088B4201D376
:1024E000CB00C01A524183088B4201D38B00C01A23
:1024F000524143088B4201D34B00C01A52418842DB
:1025000000D3401A5241CFD201461046704708B559
:1025100000F006F808BD0268531C03601170704794
:102520007047FEE70000000000000000000000000F
:10253000000000000000000000000000000000009B
:10254000000000000000000000000000000000008B
:10255000000000000000000000000000000000007B
:10256000000000000000000000000000000000006B
:1025700000000380000380000380000380000380CC
:10258000000380000380000380000380000100003E
:102590000100000000000000000380000380000034
:1025A000000000000000000000000000000000002B
:1025B000000000000000000000000000000E70009D
:1025C0000E70000E7000042000042000042000049F
:1025D00020000000000000000000000000000000DB
:1025E00000000000000000000000000000000000EB
:1025F00000000000000000000000000000000000DB
:1026000000000660000660000660000660000660CC
:10261000003FF8003FF8000660000CC0003FF800E3
:102620003FF8000CC0000CC0000CC0000CC0000C37
:10263000C0000000000000000000000000000000DA
:102640000000000000000001800001800007B000D1
:102650000FF0001870001870001C00000F800007B9
:10266000E00000F0001830001C30001C70001FE07B
:10267000001BC0000180000180000180000180007B
:10268000000000000000000000000000000000004A
:1026900000000780000FC0001CE0001860001860F8
:1026A000001CE0000FF80007E0001FF000073800F2
:1026B00006180006180007380003F00001E00000CB
:1026C000000000000000000000000000000000000A
:1026D00000000000000000000000000000000000FA
:1026E00003F00007F0000C60000C00000C00000676
:1026F00000000700000F9C001DFC0018F00018707F
:10270000000FFC0007DC00000000000000000000DB
:1027100000000000000000000000000000000000B9
:10272000000000000003800003800003800001001F
:102730000001000001000001000000000000000096
:102740000000000000000000000000000000000089
:102750000000000000000000000000000000000079
:102760000000000000000000000000180000380019
:1027700000700000F00000E00000E00001C0000177
:10278000C00001C00001C00001C00001C00000E0A5
:102790000000E00000700000700000380000180029
:1027A0000000000000000000000000000000000029
:1027B00000001800001C00000E00000E00000700C2
:1027C00000070000038000038000038000038000F6
:1027D0000380000380000700000700000F00000EC8
:1027E00000001C00001800000000000000000000B5
:1027F00000000000000000000000018000018000D7
:102800000180001DB8001FF80007E00003C00003AE
:10281000C00006600006600000000000000000002C
:1028200000000000000000000000000000000000A8
:102830000000000000000000000000000000000098
:102840000000000000000000018000018000018005
:10285000000180000180003FFC003FFC000180007F
:102860000180000180000180000180000000000064
:102870000000000000000000000000000000000058
:102880000000000000000000000000000000000048
:102890000000000000000000000000000000000038
:1028A000000000000000000000000000000000E048
:1028B0000000C00001C00001800001800003000092
:1028C0000300000000000000000000000000000005
:1028D00000000000000000000000000000000000F8
:1028E000000000000000001FF8001FF800000000BA
:1028F00000000000000000000000000000000000D8
:1029000000000000000000000000000000000000C7
:1029100000000000000000000000000000000000B7
:1029200000000000000000000000000000000000A7
:10293000000000000000000000000000000003C0D4
:102940000003C00003C00000000000000000000001
:10295000000000000000000000000000001800005F
:1029600018000038000030000070000060000060B7
:102970000000C00000C000018000018000030000D2
:102980000300000600000600000E00000C00001C02
:102990000000180000180000000000000000000007
:1029A0000000000000000000000003C00007E0007D
:1029B0000C30000C300018180018180018180018F7
:1029C00018001818001818001818000C30000C30E7
:1029D0000007E00003C0000000000000000000004D
:1029E00000000000000000000000000000000000E7
:1029F00000000080000780001F80001D8000018013
:102A00000001800001800001800001800001800041
:102A10000180000180000180001FF8001FF8000005
:102A200000000000000000000000000000000000A6
:102A30000000000000000000000007C0001FF000C0
:102A40003830003018003018000018000030000046
:102A5000600001C0000380000600000C00001800A8
:102A6000003FF8003FF800000000000000000000F8
:102A70000000000000000000000000000000000056
:102A8000000003C0000FE0000C70000030000030B8
:102A90000000600003C00003E000007000001800A8
:102AA0000018000018001838001FF0000FC00000C8
:102AB0000000000000000000000000000000000016
:102AC0000000000000000000000000E00001E00045
:102AD00001E0000360000660000660000C60000C6E
:102AE00060001860003060003FF8003FF8000060B0
:102AF0000003F80003F800000000000000000000E0
:102B000000000000000000000000000000000000C5
:102B100000001FF0001FF00018000018000018004F
:102B2000001BC0001FF0001C30000018000018003F
:102B30000018000018003030003FF0000FC0000007
:102B40000000000000000000000000000000000085
:102B50000000000000000000000000F80003F80082
:102B60000700000E00000C00001800001BC0001F32
:102B7000F0001C30001818001818001818000C3845
:102B8000000FF00003E00000000000000000000063
:102B90000000000000000000000000000000000035
:102BA00000001FF8001FF800181800183800003047
:102BB0000000300000700000600000600000E000D5
:102BC00000C00000C00001C00001800001800000C2
:102BD00000000000000000000000000000000000F5
:102BE0000000000000000000000007E0000FF000FF
:102BF0001C38001818001818000C300007E00007F7
:102C0000E0000C30001818001818001818001C38C4
:102C1000000FF00007E000000000000000000000CE
:102C200000000000000000000000000000000000A4
:102C3000000007C0000FF0001C3000181800181822
:102C4000001818000C38000FF80003D80000180016
:102C500000300000700000E0001FC0001F000000F6
:102C60000000000000000000000000000000000064
:102C70000000000000000000000000000000000054
:102C800000000000000003C00003C00003C00000FB
:102C9000000000000000000000000000000003C071
:102CA0000003C00003C0000000000000000000009E
:102CB0000000000000000000000000000000000014
:102CC000000000000000000000000000000000F014
:102CD0000000F00000F00000000000000000000014
:102CE00000000000E00001C000018000018000033E
:102CF00000000200000000000000000000000000D2
:102D000000000000000000000000000000000000C3
:102D1000001C00003C0000F00003C0000F00003C5D
:102D20000000F000003C00000F000003C00000F0B5
:102D300000003C00001C000000000000000000003B
:102D40000000000000000000000000000000000083
:102D50000000000000000000000000000000000073
:102D6000007FFC007FFC000000000000007FFC00F2
:102D70007FFC0000000000000000000000000000D8
:102D80000000000000000000000000000000000043
:102D90000000000000000000000000000000000033
:102DA0007000007800001E000007800001E00000B5
:102DB0007800001E0000780001E0000780001E007F
:102DC000007800007000000000000000000000001B
:102DD00000000000000000000000000000000000F3
:102DE000000000000007C0000FE00018700018305D
:102DF0000018300000700000E00003C000038000F5
:102E000003000000000000000007000007000000B1
:102E100000000000000000000000000000000000B2
:102E20000000000000000000000003E00007F000C8
:102E30000E38000C180018780018F80019D800197E
:102E4000980019980019980018F8001878001800D0
:102E5000000C00000E180007F80003E0000000005E
:102E60000000000000000000000000000000000062
:102E700000000000001F80001FC00001C0000360B0
:102E8000000360000630000630000C30000FF80030
:102E90001FF800180C00300C00FC7F00FC7F0000C5
:102EA0000000000000000000000000000000000022
:102EB000000000000000000000000000007FE000B3
:102EC0007FF0001838001818001818001838001F74
:102ED000F0001FF800181C00180C00180C00180C4B
:102EE000007FF8007FF000000000000000000000FC
:102EF00000000000000000000000000000000000D2
:102F0000000000000003EC000FFC001C1C00180C6B
:102F100000300C00300000300000300000300000B5
:102F2000300000180C001C1C000FF80003F000001B
:102F30000000000000000000000000000000000091
:102F4000000000000000000000000000007FC00042
:102F50007FF000183800181800180C00180C001822
:102F60000C00180C00180C00180C00181800183869
:102F7000007FF0007FE00000000000000000000083
:102F80000000000000000000000000000000000041
:102F900000000000007FF8007FF8001818001818E3
:102FA000001998001980001F80001F800019800000
:102FB0001998001818001818007FF8007FF8000012
:102FC0000000000000000000000000000000000001
:102FD000000000000000000000000000003FFC00B6
:102FE0003FFC000C0C000C0C000CCC000CC0000FC3
:102FF000C0000FC0000CC0000CC0000C00000C0092
:10300000003FC0003FC000000000000000000000C2
:1030100000000000000000000000000000000000B0
:10302000000000000003EC000FFC001C1C00180C4A
:1030300000300C0030000030000030FE0030FE0098
:10304000300C00380C001C1C000FFC0003F00000CA
:103050000000000000000000000000000000000070
:10306000000000000000000000000000007E7E0064
:103070007E7E001818001818001818001818001F75
:10308000F8001FF800181800181800181800181871
:10309000007E7E007E7E0000000000000000000038
:1030A0000000000000000000000000000000000020
:1030B00000000000001FF8001FF8000180000180E0
:1030C000000180000180000180000180000180007B
:1030D0000180000180000180001FF8001FF800003F
:1030E00000000000000000000000000000000000E0
:1030F0000000000000000000000000000007FE00CB
:1031000007FE0000300000300000300000300000FA
:10311000300030300030300030300030300030606F
:10312000003FE0000F8000000000000000000000F1
:10313000000000000000000000000000000000008F
:1031400000000000007F3E007F3E00183000186045
:103150000018C0001980001B80001FC0001CE00088
:103160001870001830001838007F1F007F1F000003
:10317000000000000000000000000000000000004F
:10318000000000000000000000000000007F800040
:103190007F80000C00000C00000C00000C00000CF4
:1031A00000000C00000C0C000C0C000C0C000C0CB3
:1031B000007FFC007FFC0000000000000000000019
:1031C00000000000000000000000000000000000FF
:1031D0000000000000F00F00F81F00381C003C3C0D
:1031E000003C3C00366C00366C0033CC0033CC0025
:1031F000318C00300C00300C00FE7F00FE7F0000A0
:1032000000000000000000000000000000000000BE
:103210000000000000000000000000000078FE0038
:1032200078FE001C18001E18001F18001B18001B39
:10323000980019D80018D80018F800187800183825
:10324000007F18007F180000000000000000000050
:10325000000000000000000000000000000000006E
:10326000000000000003C0000FF0001C3800181818
:1032700000381C00300C00300C00300C00300C000A
:10328000381C001818001C38000FF00003C00000A4
:10329000000000000000000000000000000000002E
:1032A000000000000000000000000000003FF000EF
:1032B0003FF8000C1C000C0C000C0C000C0C000C5B
:1032C00018000FF8000FE0000C00000C00000C00CC
:1032D000003FC0003FC000000000000000000000F0
:1032E00000000000000000000000000000000000DE
:1032F000000000000003C0000FF0001C3800181888
:1033000000381C00300C00300C00300C00300C0079
:10331000381C001818001C38000FF00007C0000708
:10332000CC000FFC000C3800000000000000000082
:10333000000000000000000000000000007FE0002E
:103340007FF0001838001818001818001838001FEF
:10335000F0001FC00018E000187000183000183886
:10336000007F1E007F0E0000000000000000000033
:10337000000000000000000000000000000000004D
:10338000000000000007D8000FF8001C38001818D3
:10339000001818001E00000FC00003F000007800A5
:1033A0001818001818001C38001FF0001BE000005F
:1033B000000000000000000000000000000000000D
:1033C000000000000000000000000000003FFC00C2
:1033D0003FFC00318C00318C00318C00318C0001BD
:1033E00080000180000180000180000180000180D8
:1033F000000FF0000FF000000000000000000000CF
:1034000000000000000000000000000000000000BC
:1034100000000000007E7E007E7E00181800181854
:1034200000181800181800181800181800181800AC
:103430001818001818000C30000FF00003C000002E
:10344000000000000000000000000000000000007C
:10345000000000000000000000000000007F7F006E
:103460007F7F00180C000C18000C18000C180006C8
:10347000300006300003600003600003600001C0FC
:103480000001C000008000000000000000000000FB
:10349000000000000000000000000000000000002C
:1034A0000000000000FE3F80FE3F80300600300636
:1034B0000030860019CC0019CC001B6C001B6C007E
:1034C0001E7C000E38000E38000C18000C1800008E
:1034D00000000000000000000000000000000000EC
:1034E000000000000000000000000000007E7E00E0
:1034F0007E7E001818000C300006600003C000013A
:10350000800001800003C0000660000C3000181825
:10351000007E7E007E7E00000000000000000000B3
:10352000000000000000000000000000000000009B
:1035300000000000007C7E007C7E001818000C302B
:103540000006600006600003C000018000018000EA
:103550000180000180000180000FF0000FF00000EA
:10356000000000000000000000000000000000005B
:10357000000000000000000000000000001FF80034
:103580001FF80018180018300018600018C000015B
:1035900080000300000618000C18001818003018EE
:1035A000003FF8003FF800000000000000000000AD
:1035B000000000000000000000000000000000000B
:1035C000000001F00001F000018000018000018096
:1035D0000001800001800001800001800001800066
:1035E0000180000180000180000180000180000155
:1035F000800001F00001F000000000000000000069
:10360000000000001800001800001C00000C000062
:103610000E00000600000600000300000300000189
:10362000800001800000C00000C000006000006059
:103630000000700000300000380000180000180082
:10364000000000000000000000000000000000007A
:1036500000000F80000F80000180000180000180C9
:1036600000018000018000018000018000018000D5
:1036700001800001800001800001800001800001C4
:1036800080000F80000F800000000000000000009C
:103690000000000000000000800001C00003E00006
:1036A0000770000630000C1800180C001004000011
:1036B000000000000000000000000000000000000A
:1036C00000000000000000000000000000000000FA
:1036D00000000000000000000000000000000000EA
:1036E00000000000000000000000000000000000DA
:1036F00000000000000000000000000000000000CA
:1037000000000000000000000000000000000000B9
:103710000000000000000000000000000000FFFFAB
:1037200000FFFF0000000003000003800000E00035
:103730000060000000000000000000000000000029
:103740000000000000000000000000000000000079
:103750000000000000000000000000000000000069
:103760000000000000000000000000000000000059
:1037700000000000000000000000000000000FC07A
:10378000001FE00000300000300007F0001FF000D4
:103790003830003030003070001FFC000FBC0000DB
:1037A0000000000000000000000000000000000019
:1037B0000000000000000000000078000078000019
:1037C0001800001800001BE0001FF8001C1800186B
:1037D0000C00180C00180C00180C00180C001C1819
:1037E000007FF8007BE00000000000000000000007
:1037F00000000000000000000000000000000000C9
:10380000000000000000000000000000000003ECC9
:10381000000FFC001C1C00380C00300C00300000B5
:10382000300000380C001C1C000FF80003F00000F2
:103830000000000000000000000000000000000088
:103840000000000000000000000000780000780088
:1038500000180000180007D8001FF80018380030C2
:1038600018003018003018003018003018001838D0
:10387000001FFE0007DE0000000000000000000046
:103880000000000000000000000000000000000038
:10389000000000000000000000000000000007E041
:1038A000001FF800181800300C003FFC003FFC001F
:1038B000300000300000180C001FFC0007F0000072
:1038C00000000000000000000000000000000000F8
:1038D0000000000000000000000001FC0003FC00EC
:1038E0000600000600003FF8003FF8000600000652
:1038F00000000600000600000600000600000600AA
:10390000003FF0003FF00000000000000000000059
:1039100000000000000000000000000000000000A7
:10392000000000000000000000000000000007DEB2
:10393000001FFE0018380030180030180030180042
:103940003018003018001838001FF80007D80000A1
:1039500018000018000038000FF0000FC000000031
:103960000000000000000000000078000078000067
:103970001800001800001BE0001FF0001C380018A1
:10398000180018180018180018180018180018182F
:10399000007E7E007E7E000000000000000000002F
:1039A0000000000000000000000000000000000017
:1039B00000000180000180000000000000001F8066
:1039C000001F800001800001800001800001800054
:1039D0000180000180000180003FFC003FFC0000EE
:1039E00000000000000000000000000000000000D7
:1039F0000000000000000000000000C00000C00047
:103A00000000000000001FF0001FF0000030000068
:103A10003000003000003000003000003000003086
:103A20000000300000300000300000300000700066
:103A30001FE0001F800000000000000000000000E8
:103A400000003C00003C00000C00000C00000CF8E2
:103A5000000CF8000CC0000D80000F80000F00006B
:103A60000F80000DC0000CE0003C7C003C7C00009E
:103A70000000000000000000000000000000000046
:103A8000000000000000000000001F80001F8000F8
:103A900001800001800001800001800001800001A0
:103AA0008000018000018000018000018000018011
:103AB000003FFC003FFC0000000000000000000090
:103AC00000000000000000000000000000000000F6
:103AD0000000000000000000000000000000F77877
:103AE00000FFFC0039CC00318C00318C00318C009F
:103AF000318C00318C00318C00FDEF00FDEF0000B7
:103B000000000000000000000000000000000000B5
:103B100000000000000000000000000000000000A5
:103B20000000000000007BE0007FF0001C3800185F
:103B3000180018180018180018180018180018187D
:103B4000007E7E007E7E000000000000000000007D
:103B50000000000000000000000000000000000065
:103B6000000000000000000000000000000003C092
:103B7000000FF0001C3800381C00300C00300C0026
:103B8000300C00381C001C38000FF00003C000008F
:103B90000000000000000000000000000000000025
:103BA0000000000000000000000000000000000015
:103BB0000000000000007BE0007FF8001C180018E7
:103BC0000C00180C00180C00180C00180C001C1825
:103BD000001FF8001BE0001800001800001800008B
:103BE0007F00007F000000000000000000000000D7
:103BF000000000000000000000000000000007DEE0
:103C0000001FFE001838003018003018003018006F
:103C10003018003018001838001FF80007D80000CE
:103C2000180000180000180000FE0000FE00000050
:103C30000000000000000000000000000000000084
:103C40000000000000003E78003EFC0007CC0007AA
:103C50000000060000060000060000060000060046
:103C6000003FF0003FF000000000000000000000F6
:103C70000000000000000000000000000000000044
:103C8000000000000000000000000000000007F835
:103C9000000FF8001818001818001F80000FF0001F
:103CA00000F8001818001838001FF0001FE000008E
:103CB0000000000000000000000000000000000004
:103CC000000000000000000000000C00000C0000DC
:103CD0000C00000C00003FF0003FF0000C00000C56
:103CE00000000C00000C00000C00000C00000C1C7C
:103CF0000007FC0003F000000000000000000000CE
:103D000000000000000000000000000000000000B3
:103D100000000000000000000000000000007878B3
:103D200000787800181800181800181800181800E3
:103D30001818001818001838000FFE0007DE0000E1
:103D40000000000000000000000000000000000073
:103D50000000000000000000000000000000000063
:103D60000000000000007C3E007C3E001818001897
:103D700018000C30000C300006600006600007E000
:103D80000003C00003C000000000000000000000AD
:103D90000000000000000000000000000000000023
:103DA0000000000000000000000000000000783C5F
:103DB00000783C003118003398003398001AB000A6
:103DC0001EF0001EF0001C60000C60000C60000083
:103DD00000000000000000000000000000000000E3
:103DE00000000000000000000000000000000000D3
:103DF0000000000000003E7C003E7C000C3000060D
:103E0000600003C00001800003C0000660000C30A9
:103E1000003E7C003E7C000000000000000000002E
:103E20000000000000000000000000000000000092
:103E300000000000000000000000000000007E1FE5
:103E4000007E1F00180C000C18000C180006300033
:103E500006300003600003E00001C00000C0000164
:103E600080000180000300003FC0003FC000000050
:103E70000000000000000000000000000000000042
:103E80000000000000001FF8001FF80018300018A4
:103E9000600000C0000180000300000618000C183C
:103EA000001FF8001FF800000000000000000000E4
:103EB0000000000000000000000000000000000002
:103EC000000000E00001E0000180000180000180AE
:103ED00000018000018000018000038000070000D5
:103EE000038000018000018000018000018000014A
:103EF000800001E00000E000000000000000000081
:103F000000000000000000000000018000018000AF
:103F1000018000018000018000018000018000011B
:103F2000800001800001800001800001800001808C
:103F300000018000018000018000018000018000FC
:103F40000000000000000000000000000000000071
:103F50000000070000078000018000018000018050
:103F60000001800001800001800001C00000E0002D
:103F700001C000018000018000018000018000017B
:103F80008000078000070000000000000000000023
:103F90000000000000000000000000000000000021
:103FA0000000000000000000000000000E00001FE4
:103FB00018003BB80031F00000E0000000000000F5
:103FC00000000000000000000000000000000000F1
:103FD00000000000000000000000000000000000E1
:103FE0000000000000000000001010101010000081
:103FF00010000000006C48480000000000000000B5
:10400000001414287C287C285050000000103840F0
:104010004038487010100000002050200C70081428
:104020000800000000000018202054483400000060
:104030000010101010000000000000000008081020
:104040001010101010080800002020101010101080
:104050001020200000107C10282800000000000024
:104060000000101010FE10101000000000000000F2
:10407000000000181030200000000000007C00004C
:1040800000000000000000000000003030000000D0
:1040900000040408081010202040000000384444A8
:1040A0004444444438000000003010101010101038
:1040B0007C00000000384404081020447C0000000C
:1040C000003844041804044438000000000C1414A0
:1040D00024447E040E000000003C202038040444E8
:1040E00038000000001C20407844444438000000A0
:1040F000007C440408080810100000000038444404
:10410000384444443800000000384444443C040827
:10411000700000000000003030000030300000006F
:1041200000000018180000183020000000000C10DB
:10413000608060100C000000000000007C007C002B
:10414000000000000000C02018041820C00000007B
:104150000000182404081000300000003844444CCB
:1041600054544C40443800000030102828287C4427
:10417000EE00000000F8444478444444F800000095
:10418000003C4440404040443800000000F04844B7
:1041900044444448F000000000FC44507050404447
:1041A000FC000000007E222838282020700000003B
:1041B000003C4440404E44443800000000EE44447B
:1041C0007C444444EE000000007C101010101010DD
:1041D0007C000000003C0808084848483000000007
:1041E00000EE444850704844E60000000070202073
:1041F000202024247C00000000EE6C6C54544444C5
:10420000EE00000000EE64645454544CEC000000D6
:1042100000384444444444443800000000782424D6
:1042200024382020700000000038444444444444B2
:10423000381C000000F8444444784844E200000080
:1042400000344C40380404645800000000FE921012
:10425000101010103800000000EE44444444444460
:104260003800000000EE4444282828101000000008
:1042700000EE4444545454542800000000C644281E
:1042800010102844C600000000EE4428281010102A
:1042900038000000007C4408101020447C0000001E
:1042A000003820202020202020203800004020201E
:1042B000201010080808000000380808080808083E
:1042C000080838000010102844000000000000001A
:1042D0000000000000000000000000FE00100800C8
:1042E000000000000000000000000038443C44448E
:1042F0003E00000000C0405864444444F800000000
:104300000000003C4440404438000000000C0434ED
:104310004C4444443E00000000000038447C4040CF
:104320003C000000001C207C202020207C0000009D
:10433000000000364C4444443C04380000C040585F
:1043400064444444EE00000000100070101010108F
:104350007C000000001000780808080808087000B9
:1043600000C0405C48705048DC0000000030101075
:10437000101010107C000000000000E85454545449
:10438000FE000000000000D864444444EE00000039
:10439000000000384444444438000000000000D8C5
:1043A000644444447840E000000000364C444444F7
:1043B0003C040E000000006C302020207C00000037
:1043C0000000003C44380444780000000000207CD9
:1043D000202020221C000000000000CC4444444C5B
:1043E00036000000000000EE4444282810000000C1
:1043F000000000EE4454545428000000000000CC9B
:1044000048303048CC000000000000EE442428185A
:10441000101078000000007C481020447C00000050
:1044200000081010101020101010080000101010BC
:1044300010101010101000000020101010100810A4
:1044400010102000000000000024580000000000B0
:1044500000000000000000002020202000200000BC
:1044600050500000000000002850F850F850A00004
:1044700020306030106020002020186010100000F4
:10448000003820605078000020202000000000004C
:10449000102020202020100040202020202040003C
:1044A0002070205000000000002020F82020000094
:1044B000000000001020200000000070000000003C
:1044C000000000000020000010202020404080005C
:1044D00020505050502000006020202020F8000084
:1044E000205020204070000020501020106000005C
:1044F00010305078103800007040601050200000DC
:1045000030406050506000007050102020200000AB
:1045100020502050502000003050503010600000DB
:10452000000020000020000000001000102000000B
:10453000001020C02010000000700070000000007B
:1045400000402018204000002050102000200000D3
:1045500030484858484038006020507088D80000E3
:10456000F048704848F00000705040404030000073
:10457000F048484848F00000F848604048F800001B
:10458000F848604040E00000704040585030000063
:10459000E848784848E8000070202020207000009B
:1045A0003810105050200000D850607050D80000D3
:1045B000E040404048F80000D8D8D8A888D800008B
:1045C000D868685858E8000030484848483000002B
:1045D000F048487040E00000304848484830180033
:1045E000F048487048E800007050201050700000FB
:1045F000F8A8202020700000D84848484830000023
:10460000D888485050300000D888A8A8A85000008A
:10461000D850202050D80000D888502020700000AA
:1046200078481020487800003020202020203000DA
:1046300080404020202010006020202020206000AA
:10464000202050000000000000000000000000F8E2
:104650002010000000000000000030107078000002
:10466000C040704848F000000000704040700000FA
:1046700018083848483800000000707040300000CA
:1046800010207020207000000000384848380830A2
:10469000C040704848E80000200060202070000002
:1046A0002000701010101070C040587050D80000DA
:1046B00060202020207000000000D0A8A8A80000E2
:1046C0000000F04848C800000000304848300000B2
:1046D0000000F048487040E00000384848380818AA
:1046E00000007820207000000000302010600000E2
:1046F0000040F040483000000000D8484838000032
:104700000000C848303000000000D8A8A8500000C1
:1047100000004830304800000000D8505020206091
:104720000000785028780000102020602020100021
:104730002020202020202000402020302020400069
:104740000000002850000000E0225200801802689B
:10475000914203D34368D218914202D38068002863
:10476000F5D170471848016800290ED1802149020F
:104770008160090941600021C943C16001610421D0
:104780004161124A1160124901600120704738B43A
:1047900007230C0008341C4201D1002304E0082444
:1047A0000D000835641B2340C918D21A8161C2600C
:1047B000012313434B60282389184B600249096980
:1047C000C16131BC70470000C00F0020C00E002046
:1047D0006859883CF1B586B007200C0008340442C3
:1047E00001D1002404E008240D000835641B0440B6
:1047F0000919029111000831014201D1002004E0A1
:10480000082114000834091B084010180090029871
:10481000C71800980299411ACC1A0326334302990B
:104820004B60874201D301F019FB012500984068D5
:10483000284001D101F012FB102C01D201F00EFB37
:10484000009806998969884209D10698C0680019BC
:104850000699C86006998F6105437D608EE10699CF
:10486000496988420AD106988068001906998860CB
:1048700006994F6105437D6038507FE140680640EE
:10488000012E00D0D7E0072188430490C0082028DB
:104890004AD200998E68C9680191039000980199E5
:1048A000884201D101F0DAFA0098B04201D101F05A
:1048B000D5FA00984068072188430399C9008842C7
:1048C00001D001F0CBFA0398C00006990818010046
:1048D00028318E4209D0069909698E4200D2A2E0A1
:1048E000F168009A914200D09DE00199B14208D14F
:1048F00006980168039A0120904081430698016060
:1049000093E0283081420AD0084606990969884216
:1049100000D288E080680099884200D083E0019846
:10492000F0600198866080E00098806901900098AE
:10493000C66886420ED0806806990969884226D3E7
:10494000C168009A914222D1B16891421FD1C660DC
:10495000B0601EE014300668002E07D100981030B9
:104960000668002E15D001E00800066831001431F9
:104970000A68002AF8D1310010310A68002AF3D100
:1049800006990969884202D30021016001E001F023
:1049900065FA0198002848D0982040000099C9691C
:1049A0008900069A511808180099026891420CD1A2
:1049B0000660002E19D1069841680098C26901204E
:1049C00090408143069841602FE00198069909695B
:1049D000884208D3006900998842019801D1066194
:1049E00003E0466101E001F039FA002E1DD006987F
:1049F0000069864217D30199B161009909690029BC
:104A000006D0814202D331618E6101E001F026FAC5
:104A100000984069002808D006990969884202D3A5
:104A20007061866101E001F019FA04980099081894
:104A300000900498241800984068A84300994860A2
:104A40000120204378603C51E008202827D20090C4
:104A5000C00006990818283001900646102C01D293
:104A600001F0FCF90698006800990200CA402A404B
:104A700004D18D4005430698056009E001988068DF
:104A800006990969884201D3060001E001F0E6F9C0
:104A900001988760F760BE600198F8606EE0200AB8
:104AA00001D1002223E02904884201D31F221EE005
:104AB000FF21C9434118090C082211408840314A9E
:104AC0008218120C04231A4090402F4BC3181B0C61
:104AD000022633400E26711A891AC91A9840C00B53
:104AE00008184100C01D2200C2402A408A189820A0
:104AF00040009100069B59180918FA61002078615E
:104B00003861069B5B681E00D6402E4005D195405B
:104B10001D43069845600F601DE009681F2A01D1FA
:104B2000002302E0192352089B1A22009A4000E059
:104B300029004B680725AB43A34210D0D30F9B003D
:104B4000CB18103352001D68002DF1D10698006972
:104B5000834211D31F60B961FF60BF600EE08A68B5
:104B6000069B1B69994207D39A4205D3D7608F6091
:104B7000BA60F960B86101E001F070F9029808309C
:104B800007B0F0BD00F0FFFF00C0FFFFF2B586B038
:104B9000040089480068002801D1FFF7E3FD86483A
:104BA0008168069840182F30491E88430699814233
:104BB00000D3CDE1DC214900615800290AD0D82278
:104BC0005200A21812681018824200D3C0E181423C
:104BD00000D2BDE101F048F9002800D1B8E1009011
:104BE00005680021C943884200D1B1E1D8204000C6
:104BF0002218106840191060DA21490061180A680B
:104C0000824200D202000A60A069002835D12069E2
:104C1000002802D00099814201D2009820610098BA
:104C2000E02149006050E220400025500026083075
:104C300026506148006860620020C0432062200066
:104C40002830C060010008310860C9608960B61C66
:104C50001030202EF5D3C048844203D1283D2A00CD
:104C6000009927E0201F0068072188432118083990
:104C700000984019421A283A1CE0E0204000201811
:104C800000E08068002819D00099426803689A18EB
:104C90009142F6D1017B090710D4A1691A469142CD
:104CA0000CD34368D218914208D259194160E06888
:104CB0004219A1692000FFF76AFD35E100982169DA
:104CC000884200D22061E020400020180099491954
:104CD00000E08068002810D002688A42F9D1017B88
:104CE00009070AD400990160416849194160069B8F
:104CF00000992000FFF76EFD2BE1A7693900200025
:104D0000FFF722FD41680068401805902F38002603
:104D100001000831490701D1002105E00821020006
:104D20000832891A4907490F401839001031884262
:104D300001D2019700E00190019808300490019899
:104D40001830039002962800283800990831490746
:104D500001D1002205E00821009A0832891A4A0789
:104D6000520F00998918801AA161E0600122024364
:104D70004A602822081842600F480069E0610498E0
:104D8000400701D001F06AF81B200199486004989F
:104D9000E02149006118102201F090F80098E0210C
:104DA00049006050E2204000255008302650049809
:104DB00008316050059802E0C00F0020039103996C
:104DC000091D0722039B5A60029A521C02920A1D77
:104DD0008242F3D30298022801DA01F03FF80198E9
:104DE000B84200D1A0E0C11B426801239A4342604F
:104DF00001220A437A600160C808202821D200906D
:104E0000C000261828363500102901D201F026F8F6
:104E1000206800990200CA40D10705D40121009AF8
:104E200091400143216007E0B0682169884201D3C5
:104E3000050001E001F012F8B760EF60BD60FE60B0
:104E400072E0080A01D1002228E01A04904201D33E
:104E50001F2223E0FF22D2438218120C08231A409B
:104E6000009290403D4A8218120C04231A40904050
:104E70003B4BC3181B0C02252B4001930E23009DB6
:104E80005B1B9A1A019BD21A9840C00B1018420063
:104E9000C01D0B00C340D807C00F12189820400057
:104EA0009300E31818180090FA617E613E61606813
:104EB0000300D340DB0707D4012191400143616027
:104EC0000098076000981DE0009800681F2A01D133
:104ED000002302E0192352089B1A0A009A4000E0BE
:104EE000280043680725AB438B420FD0D30F9B00AC
:104EF000C318103352001D68002DF1D121698B4277
:104F000010D31F60B861FF60BF600DE08168226947
:104F1000904207D3914205D3CF608760B960F860B3
:104F2000BE6101E000F09AFFE068069981420FD26D
:104F3000411AE160A069069A8218A26101220A431F
:104F4000A1694A60069903220A434260083000E0E2
:104F5000002007B0F0BD0000040D002000F0FFFFAE
:104F600000C0FFFFF2B584B0040000200090049858
:104F70004542000A25D080214902884201D31F20E2
:104F80001FE0FF21C9434118090C08221140884045
:104F9000B34A8218120C04231A4090400E4BC318D7
:104FA0001B0C022633400E26711A891AC91A984022
:104FB000C00B08184100049AC01DC240D007C00FA2
:104FC0000818982149008200A2185158002929D0B8
:104FD0001F2803D1002304E000C0FFFF192243086B
:104FE000D31A049A9A40002300E052004E68072723
:104FF000BE43049FF61BAE4202D2009135000CD096
:105000004E69D70FBF00C9190969002E02D08E4220
:1050100000D033000029E8D1190000293FD10099C0
:1050200000293ED101210122824050004342034326
:1050300062681A4000D177E150421040401E020BD6
:1050400010231A40D040430908263340D840860830
:1050500004273E400296F040460802273E40019653
:10506000F0404608314098267600D218029BD218AC
:10507000019BD2185218C84010188000201881597E
:105080000DE00100486807229043049A801AA84264
:1050900001D20500009108690028F2D14969002970
:1050A000F0D10098002800D13EE1A0680499401A90
:1050B000854200D338E1009E2069864200D231E16A
:1050C0007718681802900098406807218843029971
:1050D000884201D000F0C2FEBE4200D322E1009817
:1050E000806901900098C66886420DD08068216969
:1050F000884225D3C168009A914221D1B16891427A
:105100001ED1C660B0601DE014300668002E07D1C5
:10511000009810300668002E14D001E008000668E0
:10512000310014310A68002AF8D1310010310A68C0
:10513000002AF3D12169884202D30021016001E0F5
:1051400000F08CFE0198002843D098204000009980
:10515000C9698900611808180099026891420AD14A
:105160000660002E16D160680121009AD269914034
:10517000884360602DE001982169884208D3006966
:1051800000998842019801D1066103E0466101E07F
:1051900000F064FE002E1CD02069864217D30198CF
:1051A000B06100980069002807D02169884202D3C5
:1051B0003061866101E000F051FE009840690028EE
:1051C00007D02169884202D37061866101E000F056
:1051D00045FE03200121102D0AD2029A1043009AA5
:1051E00050600298009A101842681143416096E09E
:1051F000049A1043009A50600120284378607D5142
:10520000E808202819D2C200A618283635002268DE
:105210001300C3400B4003D181401143216007E0DC
:10522000B0682169884201D3050001E000F016FE54
:10523000B760EF60BD60FE6071E0280A01D1002216
:105240002AE00A04904201D31F2225E0FF22D24324
:105250008218120C08231A4001929040004A01E083
:1052600000F0FFFF8218120C04231A409040304BCC
:10527000C3181B0C0226334002930E23019E9B1B76
:105280009A1A029BD21A9840C00B10184200C01DF7
:105290002B00C3400B40D218982040009300E31825
:1052A0001818FA6100237B613B6163681E00D640D9
:1052B0000E4004D191401943616007601CE0006812
:1052C0001F2A01D1002202E0192152088A1A29005E
:1052D000914000E01000426807239A43AA420FD091
:1052E000CA0F92008318103349001A68002AF1D1BE
:1052F00021698B4211D31F60B861FF60BF600EE06F
:1053000081682269904208D3914206D3CF608760BA
:10531000B960F8600020B86101E000F09FFD0098DE
:10532000083002E000F09AFD002005B0F0BD00005A
:1053300000C0FFFFF3B585B0416848420840401EF9
:10534000010B10221140C840420908231A40D040E6
:10535000830804242340D840450802242540E8401F
:1053600001244608264098277F008918C918491942
:105370008919F0400818800005990818C0590700DD
:10538000416807229143069A8D1A09E00800416896
:1053900007229143069A891AA94201D20D000700FB
:1053A00001690029F2D140690028F0D1059800690F
:1053B000874200D2E1E0B8180490069828180190BE
:1053C0007868072188430199884201D000F046FDA2
:1053D0000498874200D3D0E0B8690090FE68BE42CE
:1053E0000DD0B86805990969884226D3C168B942C9
:1053F00023D1B168B94220D1C660B0601FE0380047
:1054000014300668002E07D1380010300668002ED0
:1054100015D001E008000668310014310A68002A3E
:10542000F8D1310010310A68002AF3D105990969D1
:10543000884202D30021016001E000F00FFD0098D6
:10544000002843D098204000F9698900059A511836
:10545000081801688F420BD10660002E16D10598FE
:105460004168FA69012090408143059841602DE030
:1054700000981169884207D30069B842009801D1A9
:10548000066103E0466101E000F0E8FC002E1DD05B
:1054900005980069864217D30098B06138690028E2
:1054A00008D005990969884202D33061866101E01C
:1054B00000F0D4FC7869002808D005990969884271
:1054C00002D37061866101E000F0C8FC0320102D5A
:1054D00008D20199084378600198381841680C4354
:1054E000446047E006990843786001202843049906
:1054F000486004984551059880680090C608202EA1
:1055000001D300F0ABFC009800282ED0059840692C
:1055100003900196F000059908182830029006467D
:105520000098102801D200F099FC059800680199B4
:105530000200CA40224004D18C4004430598046014
:1055400009E00298806805990969884201D306003C
:1055500001E000F083FC0398029988600398F060F2
:105560000398866002980399C8600598856004983E
:10557000059948610837380002E000F06FFC002010
:1055800007B0F0BDF0B587B00400C046C046BC4FC0
:10559000F52C00D328E10B2C01D2102402E00B34AF
:1055A00007208443E008019038680199C84003252A
:1055B000284250D001260122824388180190C00061
:1055C0003C182834A06800900198C000039000980F
:1055D0004068072188430399884201D000F03EFCCF
:1055E0000098806802900098A04201D100F036FC3B
:1055F00000980299884201D100F030FC0098406880
:10560000072188430399884201D000F027FC0298C3
:10561000844206D13968019A012090408143396063
:105620000DE03969884208D3C0680099884204D1E6
:105630000298A0600298C46001E000F00FFC03989B
:1056400005430098456003980099081841680E4387
:105650004660009D07E1B968A14200D3D7E0002869
:1056600000D1B7E00126019901228A405100019A38
:1056700090404A420A43024051421140491E080BE1
:1056800010221040C1404A0908231A400092D1401C
:105690008A0804231A400192D1404A0802231A4082
:1056A0000292D1404A083240009BC018019BC018AA
:1056B000029BC0188018D14040180390C0003818D1
:1056C00028300090806804900398C00002900498ED
:1056D0004068072188430299884201D000F0BEFB50
:1056E00004988068019004980099884201D100F0E4
:1056F000B5FB04980199884201D100F0AFFB0498F2
:105700004068072188430299884201D000F0A6FB37
:1057100000980199884206D13968039A0120904087
:105720008143396010E00846396988420AD3C0686D
:105730000499884206D101980099886000980199DF
:10574000C86001E000F08AFB0298001B039025432B
:105750000498456004980019059003983043059912
:1057600048600398059A1050B8680190C408202C2E
:1057700001D300F073FB0198002825D078690290CE
:105780000094E0003D1828352C000198102801D223
:1057900000F064FB386800990200CA40324003D12F
:1057A0008E4006433E6007E0A8683969884201D30D
:1057B000040001E000F052FB0298A8600298E0604B
:1057C000029884600298C5600398B8600598786173
:1057D000049D48E07868002836D021003800FFF7A3
:1057E000A9FD050013D045E03F20C043844202D309
:1057F0000024E4430BE00B3407208443786800283E
:1058000005D021003800FFF7ADFB050032D1BA68A2
:10581000A24219D3111B786901260325102908D348
:1058200002197A61B9600E435660515025434560B4
:1058300008E00021B96079611543456081184A6824
:1058400016434E6005000EE0F86884420DD2001B3E
:10585000F860BD692919B96101210143B869416046
:10586000032020436860083504E021003800FFF77A
:105870008DF90500C046C046280007B0F0BD000005
:10588000040D0020002800D17047F0B583B008381F
:105890000400C046C04698480069844200D2CEE267
:1058A0006168032203230B40012B00D1C7E2CE081D
:1058B000F600A31900930125294242D12368114023
:1058C00000D1BEE2F61859426418844200D2B6E212
:1058D000894949698C4200D1FCE0D908202900D3CC
:1058E00084E0A768E068019002910198844201D1A8
:1058F00000F0B4FABC4201D100F0B0FA60680721B0
:1059000088430299C900884201D000F0A7FA0298A2
:10591000C00079490818010028318F4206D0764925
:1059200009698F425FD3F968A1425CD10199B942FC
:1059300049D171480168029A0120904081436E4824
:1059400001600098844200D379E24068284200D187
:1059500075E2810700D5BEE10099674A92699142DC
:1059600000D0CDE06448C06881196348C16084619B
:105970000D4365604069844203D100205E4A506156
:1059800090605D48C069884200D35AE25B48006875
:10599000002801D1FEF7E6FE57488169002900D1B1
:1059A0004FE2C068292802D35348FEF7CDFE524883
:1059B000C0695149C968884200D342E20020C0430F
:1059C0004D49C8613DE22830814207D008464A4926
:1059D0000969884207D38068A04204D10198F86021
:1059E00001988760ADE700F039FAAAE7A169019153
:1059F000E768A7420BD0A168814224D3C868A042BF
:105A000021D1B868A0421ED1CF60B9601DE021004D
:105A100014310F68002F07D1210010310F68002FBB
:105A200013D001E011000F683A0014321368002B04
:105A3000F8D13A0010321368002BF3D1814202D31F
:105A40000020086001E000F009FA0198002800D168
:105A500077E798204000E1698900274A5118081823
:105A600001688C420AD10760002F15D15168E269A4
:105A70000120904081432048416062E7019811690C
:105A8000884207D30069A042019801D1076103E071
:105A9000476101E000F0E2F9002F00D151E716481C
:105AA000006987429FD30199B9612169002906D015
:105AB000814202D339618F6101E000F0CFF9606962
:105AC000002800D13DE70C49096988428BD37861F1
:105AD000876136E7009840680240032A00D030E72B
